{
  "contractName": "physicalProduct",
  "abi": [
    {
      "inputs": [
        {
          "internalType": "address",
          "name": "issuerAddress",
          "type": "address"
        }
      ],
      "stateMutability": "nonpayable",
      "type": "constructor"
    },
    {
      "anonymous": false,
      "inputs": [
        {
          "indexed": true,
          "internalType": "address",
          "name": "owner",
          "type": "address"
        },
        {
          "indexed": true,
          "internalType": "address",
          "name": "approved",
          "type": "address"
        },
        {
          "indexed": true,
          "internalType": "uint256",
          "name": "tokenId",
          "type": "uint256"
        }
      ],
      "name": "Approval",
      "type": "event"
    },
    {
      "anonymous": false,
      "inputs": [
        {
          "indexed": true,
          "internalType": "address",
          "name": "owner",
          "type": "address"
        },
        {
          "indexed": true,
          "internalType": "address",
          "name": "operator",
          "type": "address"
        },
        {
          "indexed": false,
          "internalType": "bool",
          "name": "approved",
          "type": "bool"
        }
      ],
      "name": "ApprovalForAll",
      "type": "event"
    },
    {
      "anonymous": false,
      "inputs": [
        {
          "indexed": true,
          "internalType": "address",
          "name": "previousOwner",
          "type": "address"
        },
        {
          "indexed": true,
          "internalType": "address",
          "name": "newOwner",
          "type": "address"
        }
      ],
      "name": "OwnershipTransferred",
      "type": "event"
    },
    {
      "anonymous": false,
      "inputs": [
        {
          "indexed": true,
          "internalType": "address",
          "name": "from",
          "type": "address"
        },
        {
          "indexed": true,
          "internalType": "address",
          "name": "to",
          "type": "address"
        },
        {
          "indexed": true,
          "internalType": "uint256",
          "name": "tokenId",
          "type": "uint256"
        }
      ],
      "name": "Transfer",
      "type": "event"
    },
    {
      "inputs": [
        {
          "internalType": "address",
          "name": "to",
          "type": "address"
        },
        {
          "internalType": "uint256",
          "name": "tokenId",
          "type": "uint256"
        }
      ],
      "name": "approve",
      "outputs": [],
      "stateMutability": "nonpayable",
      "type": "function"
    },
    {
      "inputs": [
        {
          "internalType": "address",
          "name": "owner",
          "type": "address"
        }
      ],
      "name": "balanceOf",
      "outputs": [
        {
          "internalType": "uint256",
          "name": "",
          "type": "uint256"
        }
      ],
      "stateMutability": "view",
      "type": "function"
    },
    {
      "inputs": [
        {
          "internalType": "uint256",
          "name": "tokenId",
          "type": "uint256"
        }
      ],
      "name": "getApproved",
      "outputs": [
        {
          "internalType": "address",
          "name": "",
          "type": "address"
        }
      ],
      "stateMutability": "view",
      "type": "function"
    },
    {
      "inputs": [
        {
          "internalType": "address",
          "name": "owner",
          "type": "address"
        },
        {
          "internalType": "address",
          "name": "operator",
          "type": "address"
        }
      ],
      "name": "isApprovedForAll",
      "outputs": [
        {
          "internalType": "bool",
          "name": "",
          "type": "bool"
        }
      ],
      "stateMutability": "view",
      "type": "function"
    },
    {
      "inputs": [],
      "name": "name",
      "outputs": [
        {
          "internalType": "string",
          "name": "",
          "type": "string"
        }
      ],
      "stateMutability": "view",
      "type": "function"
    },
    {
      "inputs": [],
      "name": "owner",
      "outputs": [
        {
          "internalType": "address",
          "name": "",
          "type": "address"
        }
      ],
      "stateMutability": "view",
      "type": "function"
    },
    {
      "inputs": [
        {
          "internalType": "uint256",
          "name": "tokenId",
          "type": "uint256"
        }
      ],
      "name": "ownerOf",
      "outputs": [
        {
          "internalType": "address",
          "name": "",
          "type": "address"
        }
      ],
      "stateMutability": "view",
      "type": "function"
    },
    {
      "inputs": [],
      "name": "renounceOwnership",
      "outputs": [],
      "stateMutability": "nonpayable",
      "type": "function"
    },
    {
      "inputs": [
        {
          "internalType": "address",
          "name": "from",
          "type": "address"
        },
        {
          "internalType": "address",
          "name": "to",
          "type": "address"
        },
        {
          "internalType": "uint256",
          "name": "tokenId",
          "type": "uint256"
        }
      ],
      "name": "safeTransferFrom",
      "outputs": [],
      "stateMutability": "nonpayable",
      "type": "function"
    },
    {
      "inputs": [
        {
          "internalType": "address",
          "name": "from",
          "type": "address"
        },
        {
          "internalType": "address",
          "name": "to",
          "type": "address"
        },
        {
          "internalType": "uint256",
          "name": "tokenId",
          "type": "uint256"
        },
        {
          "internalType": "bytes",
          "name": "_data",
          "type": "bytes"
        }
      ],
      "name": "safeTransferFrom",
      "outputs": [],
      "stateMutability": "nonpayable",
      "type": "function"
    },
    {
      "inputs": [
        {
          "internalType": "address",
          "name": "operator",
          "type": "address"
        },
        {
          "internalType": "bool",
          "name": "approved",
          "type": "bool"
        }
      ],
      "name": "setApprovalForAll",
      "outputs": [],
      "stateMutability": "nonpayable",
      "type": "function"
    },
    {
      "inputs": [],
      "name": "symbol",
      "outputs": [
        {
          "internalType": "string",
          "name": "",
          "type": "string"
        }
      ],
      "stateMutability": "view",
      "type": "function"
    },
    {
      "inputs": [
        {
          "internalType": "uint256",
          "name": "index",
          "type": "uint256"
        }
      ],
      "name": "tokenByIndex",
      "outputs": [
        {
          "internalType": "uint256",
          "name": "",
          "type": "uint256"
        }
      ],
      "stateMutability": "view",
      "type": "function"
    },
    {
      "inputs": [
        {
          "internalType": "address",
          "name": "owner",
          "type": "address"
        },
        {
          "internalType": "uint256",
          "name": "index",
          "type": "uint256"
        }
      ],
      "name": "tokenOfOwnerByIndex",
      "outputs": [
        {
          "internalType": "uint256",
          "name": "",
          "type": "uint256"
        }
      ],
      "stateMutability": "view",
      "type": "function"
    },
    {
      "inputs": [
        {
          "internalType": "uint256",
          "name": "tokenId",
          "type": "uint256"
        }
      ],
      "name": "tokenURI",
      "outputs": [
        {
          "internalType": "string",
          "name": "",
          "type": "string"
        }
      ],
      "stateMutability": "view",
      "type": "function"
    },
    {
      "inputs": [],
      "name": "totalSupply",
      "outputs": [
        {
          "internalType": "uint256",
          "name": "",
          "type": "uint256"
        }
      ],
      "stateMutability": "view",
      "type": "function"
    },
    {
      "inputs": [
        {
          "internalType": "address",
          "name": "from",
          "type": "address"
        },
        {
          "internalType": "address",
          "name": "to",
          "type": "address"
        },
        {
          "internalType": "uint256",
          "name": "tokenId",
          "type": "uint256"
        }
      ],
      "name": "transferFrom",
      "outputs": [],
      "stateMutability": "nonpayable",
      "type": "function"
    },
    {
      "inputs": [
        {
          "internalType": "address",
          "name": "newOwner",
          "type": "address"
        }
      ],
      "name": "transferOwnership",
      "outputs": [],
      "stateMutability": "nonpayable",
      "type": "function"
    },
    {
      "inputs": [
        {
          "internalType": "string",
          "name": "_secretPassword",
          "type": "string"
        },
        {
          "internalType": "string",
          "name": "_secretPin",
          "type": "string"
        },
        {
          "internalType": "string",
          "name": "_tokenURI",
          "type": "string"
        }
      ],
      "name": "mint",
      "outputs": [
        {
          "internalType": "uint256",
          "name": "",
          "type": "uint256"
        }
      ],
      "stateMutability": "payable",
      "type": "function"
    },
    {
      "inputs": [
        {
          "internalType": "uint256",
          "name": "_tokenId",
          "type": "uint256"
        },
        {
          "internalType": "string",
          "name": "_secretPassword",
          "type": "string"
        },
        {
          "internalType": "string",
          "name": "_secretPin",
          "type": "string"
        },
        {
          "internalType": "string",
          "name": "_email",
          "type": "string"
        },
        {
          "internalType": "address",
          "name": "_toAccount",
          "type": "address"
        }
      ],
      "name": "claimProduct",
      "outputs": [
        {
          "internalType": "bool",
          "name": "result",
          "type": "bool"
        }
      ],
      "stateMutability": "nonpayable",
      "type": "function"
    },
    {
      "inputs": [
        {
          "internalType": "uint256",
          "name": "_tokenId",
          "type": "uint256"
        },
        {
          "internalType": "string",
          "name": "_secretPin",
          "type": "string"
        }
      ],
      "name": "checkAuthenticity",
      "outputs": [
        {
          "internalType": "string",
          "name": "result",
          "type": "string"
        }
      ],
      "stateMutability": "view",
      "type": "function"
    },
    {
      "inputs": [
        {
          "internalType": "uint256",
          "name": "_tokenId",
          "type": "uint256"
        }
      ],
      "name": "getClaimStatus",
      "outputs": [
        {
          "internalType": "bool",
          "name": "result",
          "type": "bool"
        }
      ],
      "stateMutability": "view",
      "type": "function"
    },
    {
      "inputs": [
        {
          "internalType": "bytes4",
          "name": "interfaceId",
          "type": "bytes4"
        }
      ],
      "name": "supportsInterface",
      "outputs": [
        {
          "internalType": "bool",
          "name": "",
          "type": "bool"
        }
      ],
      "stateMutability": "view",
      "type": "function"
    }
  ],
  "bytecode": "0x60806040523480156200001157600080fd5b506040516200463638038062004636833981810160405281019062000037919062000325565b6040518060400160405280601881526020017f506879736963616c204365727469666963617465204e465400000000000000008152506040518060400160405280600381526020017f50434e0000000000000000000000000000000000000000000000000000000000815250620000c3620000b76200013f60201b60201c565b6200014760201b60201c565b8160019080519060200190620000db9291906200020b565b508060029080519060200190620000f49291906200020b565b50505080600c60006101000a81548173ffffffffffffffffffffffffffffffffffffffff021916908373ffffffffffffffffffffffffffffffffffffffff16021790555050620003bc565b600033905090565b60008060009054906101000a900473ffffffffffffffffffffffffffffffffffffffff169050816000806101000a81548173ffffffffffffffffffffffffffffffffffffffff021916908373ffffffffffffffffffffffffffffffffffffffff1602179055508173ffffffffffffffffffffffffffffffffffffffff168173ffffffffffffffffffffffffffffffffffffffff167f8be0079c531659141344cd1fd0a4f28419497f9722a3daafe3b4186f6b6457e060405160405180910390a35050565b828054620002199062000386565b90600052602060002090601f0160209004810192826200023d576000855562000289565b82601f106200025857805160ff191683800117855562000289565b8280016001018555821562000289579182015b82811115620002885782518255916020019190600101906200026b565b5b5090506200029891906200029c565b5090565b5b80821115620002b75760008160009055506001016200029d565b5090565b600080fd5b600073ffffffffffffffffffffffffffffffffffffffff82169050919050565b6000620002ed82620002c0565b9050919050565b620002ff81620002e0565b81146200030b57600080fd5b50565b6000815190506200031f81620002f4565b92915050565b6000602082840312156200033e576200033d620002bb565b5b60006200034e848285016200030e565b91505092915050565b7f4e487b7100000000000000000000000000000000000000000000000000000000600052602260045260246000fd5b600060028204905060018216806200039f57607f821691505b60208210811415620003b657620003b562000357565b5b50919050565b61426a80620003cc6000396000f3fe6080604052600436106101405760003560e01c80636352211e116100b6578063a22cb4651161006f578063a22cb465146104a8578063b88d4fde146104d1578063c87b56dd146104fa578063d645ddf614610537578063e985e9c514610567578063f2fde38b146105a457610140565b80636352211e1461038457806367a466d4146103c157806370a08231146103fe578063715018a61461043b5780638da5cb5b1461045257806395d89b411461047d57610140565b806323b872dd1161010857806323b872dd1461023e5780632f745c591461026757806336dbd2f9146102a457806342842e0e146102e1578063448c69e91461030a5780634f6ccce71461034757610140565b806301ffc9a71461014557806306fdde0314610182578063081812fc146101ad578063095ea7b3146101ea57806318160ddd14610213575b600080fd5b34801561015157600080fd5b5061016c60048036038101906101679190612993565b6105cd565b60405161017991906129db565b60405180910390f35b34801561018e57600080fd5b506101976105df565b6040516101a49190612a8f565b60405180910390f35b3480156101b957600080fd5b506101d460048036038101906101cf9190612ae7565b610671565b6040516101e19190612b55565b60405180910390f35b3480156101f657600080fd5b50610211600480360381019061020c9190612b9c565b6106f6565b005b34801561021f57600080fd5b5061022861080e565b6040516102359190612beb565b60405180910390f35b34801561024a57600080fd5b5061026560048036038101906102609190612c06565b61081b565b005b34801561027357600080fd5b5061028e60048036038101906102899190612b9c565b61087b565b60405161029b9190612beb565b60405180910390f35b3480156102b057600080fd5b506102cb60048036038101906102c69190612ae7565b610920565b6040516102d891906129db565b60405180910390f35b3480156102ed57600080fd5b5061030860048036038101906103039190612c06565b610995565b005b34801561031657600080fd5b50610331600480360381019061032c9190612d8e565b6109b5565b60405161033e91906129db565b60405180910390f35b34801561035357600080fd5b5061036e60048036038101906103699190612ae7565b610c83565b60405161037b9190612beb565b60405180910390f35b34801561039057600080fd5b506103ab60048036038101906103a69190612ae7565b610cf4565b6040516103b89190612b55565b60405180910390f35b3480156103cd57600080fd5b506103e860048036038101906103e39190612e5d565b610da6565b6040516103f59190612a8f565b60405180910390f35b34801561040a57600080fd5b5061042560048036038101906104209190612eb9565b610f37565b6040516104329190612beb565b60405180910390f35b34801561044757600080fd5b50610450610fef565b005b34801561045e57600080fd5b50610467611077565b6040516104749190612b55565b60405180910390f35b34801561048957600080fd5b506104926110a0565b60405161049f9190612a8f565b60405180910390f35b3480156104b457600080fd5b506104cf60048036038101906104ca9190612f12565b611132565b005b3480156104dd57600080fd5b506104f860048036038101906104f39190612ff3565b611148565b005b34801561050657600080fd5b50610521600480360381019061051c9190612ae7565b6111aa565b60405161052e9190612a8f565b60405180910390f35b610551600480360381019061054c9190613076565b611251565b60405161055e9190612beb565b60405180910390f35b34801561057357600080fd5b5061058e6004803603810190610589919061311d565b611349565b60405161059b91906129db565b60405180910390f35b3480156105b057600080fd5b506105cb60048036038101906105c69190612eb9565b6113dd565b005b60006105d8826114d5565b9050919050565b6060600180546105ee9061318c565b80601f016020809104026020016040519081016040528092919081815260200182805461061a9061318c565b80156106675780601f1061063c57610100808354040283529160200191610667565b820191906000526020600020905b81548152906001019060200180831161064a57829003601f168201915b5050505050905090565b600061067c8261154f565b6106bb576040517f08c379a00000000000000000000000000000000000000000000000000000000081526004016106b290613230565b60405180910390fd5b6005600083815260200190815260200160002060009054906101000a900473ffffffffffffffffffffffffffffffffffffffff169050919050565b600061070182610cf4565b90508073ffffffffffffffffffffffffffffffffffffffff168373ffffffffffffffffffffffffffffffffffffffff161415610772576040517f08c379a0000000000000000000000000000000000000000000000000000000008152600401610769906132c2565b60405180910390fd5b8073ffffffffffffffffffffffffffffffffffffffff166107916115bb565b73ffffffffffffffffffffffffffffffffffffffff1614806107c057506107bf816107ba6115bb565b611349565b5b6107ff576040517f08c379a00000000000000000000000000000000000000000000000000000000081526004016107f690613354565b60405180910390fd5b61080983836115c3565b505050565b6000600980549050905090565b61082c6108266115bb565b8261167c565b61086b576040517f08c379a0000000000000000000000000000000000000000000000000000000008152600401610862906133e6565b60405180910390fd5b61087683838361175a565b505050565b600061088683610f37565b82106108c7576040517f08c379a00000000000000000000000000000000000000000000000000000000081526004016108be90613478565b60405180910390fd5b600760008473ffffffffffffffffffffffffffffffffffffffff1673ffffffffffffffffffffffffffffffffffffffff168152602001908152602001600020600083815260200190815260200160002054905092915050565b600061092b8261154f565b61096a576040517f08c379a0000000000000000000000000000000000000000000000000000000008152600401610961906134e4565b60405180910390fd5b600d600083815260200190815260200160002060020160149054906101000a900460ff169050919050565b6109b083838360405180602001604052806000815250611148565b505050565b60006109c08661154f565b6109ff576040517f08c379a00000000000000000000000000000000000000000000000000000000081526004016109f6906134e4565b60405180910390fd5b60001515600d600088815260200190815260200160002060020160149054906101000a900460ff16151514610a69576040517f08c379a0000000000000000000000000000000000000000000000000000000008152600401610a6090613550565b60405180910390fd5b84604051602001610a7a91906135ac565b60405160208183030381529060405280519060200120600d6000888152602001908152602001600020600001604051602001610ab69190613657565b60405160208183030381529060405280519060200120148015610b39575083604051602001610ae591906135ac565b60405160208183030381529060405280519060200120600d6000888152602001908152602001600020600101604051602001610b219190613657565b60405160208183030381529060405280519060200120145b610b78576040517f08c379a0000000000000000000000000000000000000000000000000000000008152600401610b6f906136e0565b60405180910390fd5b610ba5600c60009054906101000a900473ffffffffffffffffffffffffffffffffffffffff16838861175a565b81600d600088815260200190815260200160002060020160006101000a81548173ffffffffffffffffffffffffffffffffffffffff021916908373ffffffffffffffffffffffffffffffffffffffff1602179055506001600d600088815260200190815260200160002060020160146101000a81548160ff02191690831515021790555082600d60008881526020019081526020016000206003019080519060200190610c53929190612884565b50600d600087815260200190815260200160002060020160149054906101000a900460ff16905095945050505050565b6000610c8d61080e565b8210610cce576040517f08c379a0000000000000000000000000000000000000000000000000000000008152600401610cc590613772565b60405180910390fd5b60098281548110610ce257610ce1613792565b5b90600052602060002001549050919050565b6000806003600084815260200190815260200160002060009054906101000a900473ffffffffffffffffffffffffffffffffffffffff169050600073ffffffffffffffffffffffffffffffffffffffff168173ffffffffffffffffffffffffffffffffffffffff161415610d9d576040517f08c379a0000000000000000000000000000000000000000000000000000000008152600401610d9490613833565b60405180910390fd5b80915050919050565b6060610db18361154f565b610df0576040517f08c379a0000000000000000000000000000000000000000000000000000000008152600401610de7906134e4565b60405180910390fd5b81604051602001610e0191906135ac565b60405160208183030381529060405280519060200120600d6000858152602001908152602001600020600101604051602001610e3d9190613657565b6040516020818303038152906040528051906020012014610e93576040517f08c379a0000000000000000000000000000000000000000000000000000000008152600401610e8a9061389f565b60405180910390fd5b600e60008481526020019081526020016000208054610eb19061318c565b80601f0160208091040260200160405190810160405280929190818152602001828054610edd9061318c565b8015610f2a5780601f10610eff57610100808354040283529160200191610f2a565b820191906000526020600020905b815481529060010190602001808311610f0d57829003601f168201915b5050505050905092915050565b60008073ffffffffffffffffffffffffffffffffffffffff168273ffffffffffffffffffffffffffffffffffffffff161415610fa8576040517f08c379a0000000000000000000000000000000000000000000000000000000008152600401610f9f90613931565b60405180910390fd5b600460008373ffffffffffffffffffffffffffffffffffffffff1673ffffffffffffffffffffffffffffffffffffffff168152602001908152602001600020549050919050565b610ff76115bb565b73ffffffffffffffffffffffffffffffffffffffff16611015611077565b73ffffffffffffffffffffffffffffffffffffffff161461106b576040517f08c379a00000000000000000000000000000000000000000000000000000000081526004016110629061399d565b60405180910390fd5b61107560006119c1565b565b60008060009054906101000a900473ffffffffffffffffffffffffffffffffffffffff16905090565b6060600280546110af9061318c565b80601f01602080910402602001604051908101604052809291908181526020018280546110db9061318c565b80156111285780601f106110fd57610100808354040283529160200191611128565b820191906000526020600020905b81548152906001019060200180831161110b57829003601f168201915b5050505050905090565b61114461113d6115bb565b8383611a85565b5050565b6111596111536115bb565b8361167c565b611198576040517f08c379a000000000000000000000000000000000000000000000000000000000815260040161118f906133e6565b60405180910390fd5b6111a484848484611bf2565b50505050565b60606111b58261154f565b6111f4576040517f08c379a00000000000000000000000000000000000000000000000000000000081526004016111eb90613a2f565b60405180910390fd5b60006111fe611c4e565b9050600081511161121e5760405180602001604052806000815250611249565b8061122884611c65565b604051602001611239929190613a4f565b6040516020818303038152906040525b915050919050565b60003373ffffffffffffffffffffffffffffffffffffffff16600c60009054906101000a900473ffffffffffffffffffffffffffffffffffffffff1673ffffffffffffffffffffffffffffffffffffffff16146112ad57600080fd5b662386f26fc100003410156112f7576040517f08c379a00000000000000000000000000000000000000000000000000000000081526004016112ee90613abf565b60405180910390fd5b6000611303600b611dc6565b905061130f3382611dd4565b611319600b611fae565b6113238184611fc4565b61133e85858360405180602001604052806000815250612038565b809150509392505050565b6000600660008473ffffffffffffffffffffffffffffffffffffffff1673ffffffffffffffffffffffffffffffffffffffff16815260200190815260200160002060008373ffffffffffffffffffffffffffffffffffffffff1673ffffffffffffffffffffffffffffffffffffffff16815260200190815260200160002060009054906101000a900460ff16905092915050565b6113e56115bb565b73ffffffffffffffffffffffffffffffffffffffff16611403611077565b73ffffffffffffffffffffffffffffffffffffffff1614611459576040517f08c379a00000000000000000000000000000000000000000000000000000000081526004016114509061399d565b60405180910390fd5b600073ffffffffffffffffffffffffffffffffffffffff168173ffffffffffffffffffffffffffffffffffffffff1614156114c9576040517f08c379a00000000000000000000000000000000000000000000000000000000081526004016114c090613b51565b60405180910390fd5b6114d2816119c1565b50565b60007f780e9d63000000000000000000000000000000000000000000000000000000007bffffffffffffffffffffffffffffffffffffffffffffffffffffffff1916827bffffffffffffffffffffffffffffffffffffffffffffffffffffffff19161480611548575061154782612159565b5b9050919050565b60008073ffffffffffffffffffffffffffffffffffffffff166003600084815260200190815260200160002060009054906101000a900473ffffffffffffffffffffffffffffffffffffffff1673ffffffffffffffffffffffffffffffffffffffff1614159050919050565b600033905090565b816005600083815260200190815260200160002060006101000a81548173ffffffffffffffffffffffffffffffffffffffff021916908373ffffffffffffffffffffffffffffffffffffffff160217905550808273ffffffffffffffffffffffffffffffffffffffff1661163683610cf4565b73ffffffffffffffffffffffffffffffffffffffff167f8c5be1e5ebec7d5bd14f71427d1e84f3dd0314c0f7b2291e5b200ac8c7c3b92560405160405180910390a45050565b60006116878261154f565b6116c6576040517f08c379a00000000000000000000000000000000000000000000000000000000081526004016116bd90613be3565b60405180910390fd5b60006116d183610cf4565b90508073ffffffffffffffffffffffffffffffffffffffff168473ffffffffffffffffffffffffffffffffffffffff16148061171357506117128185611349565b5b8061175157508373ffffffffffffffffffffffffffffffffffffffff1661173984610671565b73ffffffffffffffffffffffffffffffffffffffff16145b91505092915050565b8273ffffffffffffffffffffffffffffffffffffffff1661177a82610cf4565b73ffffffffffffffffffffffffffffffffffffffff16146117d0576040517f08c379a00000000000000000000000000000000000000000000000000000000081526004016117c790613c75565b60405180910390fd5b600073ffffffffffffffffffffffffffffffffffffffff168273ffffffffffffffffffffffffffffffffffffffff161415611840576040517f08c379a000000000000000000000000000000000000000000000000000000000815260040161183790613d07565b60405180910390fd5b61184b83838361223b565b6118566000826115c3565b6001600460008573ffffffffffffffffffffffffffffffffffffffff1673ffffffffffffffffffffffffffffffffffffffff16815260200190815260200160002060008282546118a69190613d56565b925050819055506001600460008473ffffffffffffffffffffffffffffffffffffffff1673ffffffffffffffffffffffffffffffffffffffff16815260200190815260200160002060008282546118fd9190613d8a565b92505081905550816003600083815260200190815260200160002060006101000a81548173ffffffffffffffffffffffffffffffffffffffff021916908373ffffffffffffffffffffffffffffffffffffffff160217905550808273ffffffffffffffffffffffffffffffffffffffff168473ffffffffffffffffffffffffffffffffffffffff167fddf252ad1be2c89b69c2b068fc378daa952ba7f163c4a11628f55a4df523b3ef60405160405180910390a46119bc83838361224b565b505050565b60008060009054906101000a900473ffffffffffffffffffffffffffffffffffffffff169050816000806101000a81548173ffffffffffffffffffffffffffffffffffffffff021916908373ffffffffffffffffffffffffffffffffffffffff1602179055508173ffffffffffffffffffffffffffffffffffffffff168173ffffffffffffffffffffffffffffffffffffffff167f8be0079c531659141344cd1fd0a4f28419497f9722a3daafe3b4186f6b6457e060405160405180910390a35050565b8173ffffffffffffffffffffffffffffffffffffffff168373ffffffffffffffffffffffffffffffffffffffff161415611af4576040517f08c379a0000000000000000000000000000000000000000000000000000000008152600401611aeb90613e2c565b60405180910390fd5b80600660008573ffffffffffffffffffffffffffffffffffffffff1673ffffffffffffffffffffffffffffffffffffffff16815260200190815260200160002060008473ffffffffffffffffffffffffffffffffffffffff1673ffffffffffffffffffffffffffffffffffffffff16815260200190815260200160002060006101000a81548160ff0219169083151502179055508173ffffffffffffffffffffffffffffffffffffffff168373ffffffffffffffffffffffffffffffffffffffff167f17307eab39ab6107e8899845ad3d59bd9653f200f220920489ca2b5937696c3183604051611be591906129db565b60405180910390a3505050565b611bfd84848461175a565b611c0984848484612250565b611c48576040517f08c379a0000000000000000000000000000000000000000000000000000000008152600401611c3f90613ebe565b60405180910390fd5b50505050565b606060405180602001604052806000815250905090565b60606000821415611cad576040518060400160405280600181526020017f30000000000000000000000000000000000000000000000000000000000000008152509050611dc1565b600082905060005b60008214611cdf578080611cc890613ede565b915050600a82611cd89190613f56565b9150611cb5565b60008167ffffffffffffffff811115611cfb57611cfa612c63565b5b6040519080825280601f01601f191660200182016040528015611d2d5781602001600182028036833780820191505090505b5090505b60008514611dba57600182611d469190613d56565b9150600a85611d559190613f87565b6030611d619190613d8a565b60f81b818381518110611d7757611d76613792565b5b60200101907effffffffffffffffffffffffffffffffffffffffffffffffffffffffffffff1916908160001a905350600a85611db39190613f56565b9450611d31565b8093505050505b919050565b600081600001549050919050565b600073ffffffffffffffffffffffffffffffffffffffff168273ffffffffffffffffffffffffffffffffffffffff161415611e44576040517f08c379a0000000000000000000000000000000000000000000000000000000008152600401611e3b90614004565b60405180910390fd5b611e4d8161154f565b15611e8d576040517f08c379a0000000000000000000000000000000000000000000000000000000008152600401611e8490614070565b60405180910390fd5b611e996000838361223b565b6001600460008473ffffffffffffffffffffffffffffffffffffffff1673ffffffffffffffffffffffffffffffffffffffff1681526020019081526020016000206000828254611ee99190613d8a565b92505081905550816003600083815260200190815260200160002060006101000a81548173ffffffffffffffffffffffffffffffffffffffff021916908373ffffffffffffffffffffffffffffffffffffffff160217905550808273ffffffffffffffffffffffffffffffffffffffff16600073ffffffffffffffffffffffffffffffffffffffff167fddf252ad1be2c89b69c2b068fc378daa952ba7f163c4a11628f55a4df523b3ef60405160405180910390a4611faa6000838361224b565b5050565b6001816000016000828254019250508190555050565b611fcd8261154f565b61200c576040517f08c379a000000000000000000000000000000000000000000000000000000000815260040161200390614102565b60405180910390fd5b80600e60008481526020019081526020016000209080519060200190612033929190612884565b505050565b60006040518060a00160405280868152602001858152602001600073ffffffffffffffffffffffffffffffffffffffff16815260200160001515815260200183815250905080600d600085815260200190815260200160002060008201518160000190805190602001906120ad929190612884565b5060208201518160010190805190602001906120ca929190612884565b5060408201518160020160006101000a81548173ffffffffffffffffffffffffffffffffffffffff021916908373ffffffffffffffffffffffffffffffffffffffff16021790555060608201518160020160146101000a81548160ff021916908315150217905550608082015181600301908051906020019061214e929190612884565b509050505050505050565b60007f80ac58cd000000000000000000000000000000000000000000000000000000007bffffffffffffffffffffffffffffffffffffffffffffffffffffffff1916827bffffffffffffffffffffffffffffffffffffffffffffffffffffffff1916148061222457507f5b5e139f000000000000000000000000000000000000000000000000000000007bffffffffffffffffffffffffffffffffffffffffffffffffffffffff1916827bffffffffffffffffffffffffffffffffffffffffffffffffffffffff1916145b806122345750612233826123d8565b5b9050919050565b612246838383612442565b505050565b505050565b60006122718473ffffffffffffffffffffffffffffffffffffffff16612556565b156123cb578373ffffffffffffffffffffffffffffffffffffffff1663150b7a0261229a6115bb565b8786866040518563ffffffff1660e01b81526004016122bc9493929190614177565b6020604051808303816000875af19250505080156122f857506040513d601f19601f820116820180604052508101906122f591906141d8565b60015b61237b573d8060008114612328576040519150601f19603f3d011682016040523d82523d6000602084013e61232d565b606091505b50600081511415612373576040517f08c379a000000000000000000000000000000000000000000000000000000000815260040161236a90613ebe565b60405180910390fd5b805181602001fd5b63150b7a0260e01b7bffffffffffffffffffffffffffffffffffffffffffffffffffffffff1916817bffffffffffffffffffffffffffffffffffffffffffffffffffffffff1916149150506123d0565b600190505b949350505050565b60007f01ffc9a7000000000000000000000000000000000000000000000000000000007bffffffffffffffffffffffffffffffffffffffffffffffffffffffff1916827bffffffffffffffffffffffffffffffffffffffffffffffffffffffff1916149050919050565b61244d838383612579565b600073ffffffffffffffffffffffffffffffffffffffff168373ffffffffffffffffffffffffffffffffffffffff1614156124905761248b8161257e565b6124cf565b8173ffffffffffffffffffffffffffffffffffffffff168373ffffffffffffffffffffffffffffffffffffffff16146124ce576124cd83826125c7565b5b5b600073ffffffffffffffffffffffffffffffffffffffff168273ffffffffffffffffffffffffffffffffffffffff1614156125125761250d81612734565b612551565b8273ffffffffffffffffffffffffffffffffffffffff168273ffffffffffffffffffffffffffffffffffffffff16146125505761254f8282612805565b5b5b505050565b6000808273ffffffffffffffffffffffffffffffffffffffff163b119050919050565b505050565b600980549050600a600083815260200190815260200160002081905550600981908060018154018082558091505060019003906000526020600020016000909190919091505550565b600060016125d484610f37565b6125de9190613d56565b90506000600860008481526020019081526020016000205490508181146126c3576000600760008673ffffffffffffffffffffffffffffffffffffffff1673ffffffffffffffffffffffffffffffffffffffff168152602001908152602001600020600084815260200190815260200160002054905080600760008773ffffffffffffffffffffffffffffffffffffffff1673ffffffffffffffffffffffffffffffffffffffff168152602001908152602001600020600084815260200190815260200160002081905550816008600083815260200190815260200160002081905550505b6008600084815260200190815260200160002060009055600760008573ffffffffffffffffffffffffffffffffffffffff1673ffffffffffffffffffffffffffffffffffffffff16815260200190815260200160002060008381526020019081526020016000206000905550505050565b600060016009805490506127489190613d56565b90506000600a600084815260200190815260200160002054905060006009838154811061277857612777613792565b5b90600052602060002001549050806009838154811061279a57612799613792565b5b906000526020600020018190555081600a600083815260200190815260200160002081905550600a60008581526020019081526020016000206000905560098054806127e9576127e8614205565b5b6001900381819060005260206000200160009055905550505050565b600061281083610f37565b905081600760008573ffffffffffffffffffffffffffffffffffffffff1673ffffffffffffffffffffffffffffffffffffffff168152602001908152602001600020600083815260200190815260200160002081905550806008600084815260200190815260200160002081905550505050565b8280546128909061318c565b90600052602060002090601f0160209004810192826128b257600085556128f9565b82601f106128cb57805160ff19168380011785556128f9565b828001600101855582156128f9579182015b828111156128f85782518255916020019190600101906128dd565b5b509050612906919061290a565b5090565b5b8082111561292357600081600090555060010161290b565b5090565b6000604051905090565b600080fd5b600080fd5b60007fffffffff0000000000000000000000000000000000000000000000000000000082169050919050565b6129708161293b565b811461297b57600080fd5b50565b60008135905061298d81612967565b92915050565b6000602082840312156129a9576129a8612931565b5b60006129b78482850161297e565b91505092915050565b60008115159050919050565b6129d5816129c0565b82525050565b60006020820190506129f060008301846129cc565b92915050565b600081519050919050565b600082825260208201905092915050565b60005b83811015612a30578082015181840152602081019050612a15565b83811115612a3f576000848401525b50505050565b6000601f19601f8301169050919050565b6000612a61826129f6565b612a6b8185612a01565b9350612a7b818560208601612a12565b612a8481612a45565b840191505092915050565b60006020820190508181036000830152612aa98184612a56565b905092915050565b6000819050919050565b612ac481612ab1565b8114612acf57600080fd5b50565b600081359050612ae181612abb565b92915050565b600060208284031215612afd57612afc612931565b5b6000612b0b84828501612ad2565b91505092915050565b600073ffffffffffffffffffffffffffffffffffffffff82169050919050565b6000612b3f82612b14565b9050919050565b612b4f81612b34565b82525050565b6000602082019050612b6a6000830184612b46565b92915050565b612b7981612b34565b8114612b8457600080fd5b50565b600081359050612b9681612b70565b92915050565b60008060408385031215612bb357612bb2612931565b5b6000612bc185828601612b87565b9250506020612bd285828601612ad2565b9150509250929050565b612be581612ab1565b82525050565b6000602082019050612c006000830184612bdc565b92915050565b600080600060608486031215612c1f57612c1e612931565b5b6000612c2d86828701612b87565b9350506020612c3e86828701612b87565b9250506040612c4f86828701612ad2565b9150509250925092565b600080fd5b600080fd5b7f4e487b7100000000000000000000000000000000000000000000000000000000600052604160045260246000fd5b612c9b82612a45565b810181811067ffffffffffffffff82111715612cba57612cb9612c63565b5b80604052505050565b6000612ccd612927565b9050612cd98282612c92565b919050565b600067ffffffffffffffff821115612cf957612cf8612c63565b5b612d0282612a45565b9050602081019050919050565b82818337600083830152505050565b6000612d31612d2c84612cde565b612cc3565b905082815260208101848484011115612d4d57612d4c612c5e565b5b612d58848285612d0f565b509392505050565b600082601f830112612d7557612d74612c59565b5b8135612d85848260208601612d1e565b91505092915050565b600080600080600060a08688031215612daa57612da9612931565b5b6000612db888828901612ad2565b955050602086013567ffffffffffffffff811115612dd957612dd8612936565b5b612de588828901612d60565b945050604086013567ffffffffffffffff811115612e0657612e05612936565b5b612e1288828901612d60565b935050606086013567ffffffffffffffff811115612e3357612e32612936565b5b612e3f88828901612d60565b9250506080612e5088828901612b87565b9150509295509295909350565b60008060408385031215612e7457612e73612931565b5b6000612e8285828601612ad2565b925050602083013567ffffffffffffffff811115612ea357612ea2612936565b5b612eaf85828601612d60565b9150509250929050565b600060208284031215612ecf57612ece612931565b5b6000612edd84828501612b87565b91505092915050565b612eef816129c0565b8114612efa57600080fd5b50565b600081359050612f0c81612ee6565b92915050565b60008060408385031215612f2957612f28612931565b5b6000612f3785828601612b87565b9250506020612f4885828601612efd565b9150509250929050565b600067ffffffffffffffff821115612f6d57612f6c612c63565b5b612f7682612a45565b9050602081019050919050565b6000612f96612f9184612f52565b612cc3565b905082815260208101848484011115612fb257612fb1612c5e565b5b612fbd848285612d0f565b509392505050565b600082601f830112612fda57612fd9612c59565b5b8135612fea848260208601612f83565b91505092915050565b6000806000806080858703121561300d5761300c612931565b5b600061301b87828801612b87565b945050602061302c87828801612b87565b935050604061303d87828801612ad2565b925050606085013567ffffffffffffffff81111561305e5761305d612936565b5b61306a87828801612fc5565b91505092959194509250565b60008060006060848603121561308f5761308e612931565b5b600084013567ffffffffffffffff8111156130ad576130ac612936565b5b6130b986828701612d60565b935050602084013567ffffffffffffffff8111156130da576130d9612936565b5b6130e686828701612d60565b925050604084013567ffffffffffffffff81111561310757613106612936565b5b61311386828701612d60565b9150509250925092565b6000806040838503121561313457613133612931565b5b600061314285828601612b87565b925050602061315385828601612b87565b9150509250929050565b7f4e487b7100000000000000000000000000000000000000000000000000000000600052602260045260246000fd5b600060028204905060018216806131a457607f821691505b602082108114156131b8576131b761315d565b5b50919050565b7f4552433732313a20617070726f76656420717565727920666f72206e6f6e657860008201527f697374656e7420746f6b656e0000000000000000000000000000000000000000602082015250565b600061321a602c83612a01565b9150613225826131be565b604082019050919050565b600060208201905081810360008301526132498161320d565b9050919050565b7f4552433732313a20617070726f76616c20746f2063757272656e74206f776e6560008201527f7200000000000000000000000000000000000000000000000000000000000000602082015250565b60006132ac602183612a01565b91506132b782613250565b604082019050919050565b600060208201905081810360008301526132db8161329f565b9050919050565b7f4552433732313a20617070726f76652063616c6c6572206973206e6f74206f7760008201527f6e6572206e6f7220617070726f76656420666f7220616c6c0000000000000000602082015250565b600061333e603883612a01565b9150613349826132e2565b604082019050919050565b6000602082019050818103600083015261336d81613331565b9050919050565b7f4552433732313a207472616e736665722063616c6c6572206973206e6f74206f60008201527f776e6572206e6f7220617070726f766564000000000000000000000000000000602082015250565b60006133d0603183612a01565b91506133db82613374565b604082019050919050565b600060208201905081810360008301526133ff816133c3565b9050919050565b7f455243373231456e756d657261626c653a206f776e657220696e646578206f7560008201527f74206f6620626f756e6473000000000000000000000000000000000000000000602082015250565b6000613462602b83612a01565b915061346d82613406565b604082019050919050565b6000602082019050818103600083015261349181613455565b9050919050565b7f5468697320546f6b656e6964206e6f74206578697374732e0000000000000000600082015250565b60006134ce601883612a01565b91506134d982613498565b602082019050919050565b600060208201905081810360008301526134fd816134c1565b9050919050565b7f546869732070726f6475637420616c7265647920636c61696d65642e00000000600082015250565b600061353a601c83612a01565b915061354582613504565b602082019050919050565b600060208201905081810360008301526135698161352d565b9050919050565b600081905092915050565b6000613586826129f6565b6135908185613570565b93506135a0818560208601612a12565b80840191505092915050565b60006135b8828461357b565b915081905092915050565b60008190508160005260206000209050919050565b600081546135e58161318c565b6135ef8186613570565b9450600182166000811461360a576001811461361b5761364e565b60ff1983168652818601935061364e565b613624856135c3565b60005b8381101561364657815481890152600182019150602081019050613627565b838801955050505b50505092915050565b600061366382846135d8565b915081905092915050565b7f5468697320636c61696d6572206973206e6f7420617574686f72697a6520746f60008201527f20636c61696d2063657274696669636174652e00000000000000000000000000602082015250565b60006136ca603383612a01565b91506136d58261366e565b604082019050919050565b600060208201905081810360008301526136f9816136bd565b9050919050565b7f455243373231456e756d657261626c653a20676c6f62616c20696e646578206f60008201527f7574206f6620626f756e64730000000000000000000000000000000000000000602082015250565b600061375c602c83612a01565b915061376782613700565b604082019050919050565b6000602082019050818103600083015261378b8161374f565b9050919050565b7f4e487b7100000000000000000000000000000000000000000000000000000000600052603260045260246000fd5b7f4552433732313a206f776e657220717565727920666f72206e6f6e657869737460008201527f656e7420746f6b656e0000000000000000000000000000000000000000000000602082015250565b600061381d602983612a01565b9150613828826137c1565b604082019050919050565b6000602082019050818103600083015261384c81613810565b9050919050565b7f456e74657265642070696e206973206e6f742076616c69642e00000000000000600082015250565b6000613889601983612a01565b915061389482613853565b602082019050919050565b600060208201905081810360008301526138b88161387c565b9050919050565b7f4552433732313a2062616c616e636520717565727920666f7220746865207a6560008201527f726f206164647265737300000000000000000000000000000000000000000000602082015250565b600061391b602a83612a01565b9150613926826138bf565b604082019050919050565b6000602082019050818103600083015261394a8161390e565b9050919050565b7f4f776e61626c653a2063616c6c6572206973206e6f7420746865206f776e6572600082015250565b6000613987602083612a01565b915061399282613951565b602082019050919050565b600060208201905081810360008301526139b68161397a565b9050919050565b7f4552433732314d657461646174613a2055524920717565727920666f72206e6f60008201527f6e6578697374656e7420746f6b656e0000000000000000000000000000000000602082015250565b6000613a19602f83612a01565b9150613a24826139bd565b604082019050919050565b60006020820190508181036000830152613a4881613a0c565b9050919050565b6000613a5b828561357b565b9150613a67828461357b565b91508190509392505050565b7f52657175697265206d696e696d756d206d696e74696e6720616d6f756e742e00600082015250565b6000613aa9601f83612a01565b9150613ab482613a73565b602082019050919050565b60006020820190508181036000830152613ad881613a9c565b9050919050565b7f4f776e61626c653a206e6577206f776e657220697320746865207a65726f206160008201527f6464726573730000000000000000000000000000000000000000000000000000602082015250565b6000613b3b602683612a01565b9150613b4682613adf565b604082019050919050565b60006020820190508181036000830152613b6a81613b2e565b9050919050565b7f4552433732313a206f70657261746f7220717565727920666f72206e6f6e657860008201527f697374656e7420746f6b656e0000000000000000000000000000000000000000602082015250565b6000613bcd602c83612a01565b9150613bd882613b71565b604082019050919050565b60006020820190508181036000830152613bfc81613bc0565b9050919050565b7f4552433732313a207472616e736665722066726f6d20696e636f72726563742060008201527f6f776e6572000000000000000000000000000000000000000000000000000000602082015250565b6000613c5f602583612a01565b9150613c6a82613c03565b604082019050919050565b60006020820190508181036000830152613c8e81613c52565b9050919050565b7f4552433732313a207472616e7366657220746f20746865207a65726f2061646460008201527f7265737300000000000000000000000000000000000000000000000000000000602082015250565b6000613cf1602483612a01565b9150613cfc82613c95565b604082019050919050565b60006020820190508181036000830152613d2081613ce4565b9050919050565b7f4e487b7100000000000000000000000000000000000000000000000000000000600052601160045260246000fd5b6000613d6182612ab1565b9150613d6c83612ab1565b925082821015613d7f57613d7e613d27565b5b828203905092915050565b6000613d9582612ab1565b9150613da083612ab1565b9250827fffffffffffffffffffffffffffffffffffffffffffffffffffffffffffffffff03821115613dd557613dd4613d27565b5b828201905092915050565b7f4552433732313a20617070726f766520746f2063616c6c657200000000000000600082015250565b6000613e16601983612a01565b9150613e2182613de0565b602082019050919050565b60006020820190508181036000830152613e4581613e09565b9050919050565b7f4552433732313a207472616e7366657220746f206e6f6e20455243373231526560008201527f63656976657220696d706c656d656e7465720000000000000000000000000000602082015250565b6000613ea8603283612a01565b9150613eb382613e4c565b604082019050919050565b60006020820190508181036000830152613ed781613e9b565b9050919050565b6000613ee982612ab1565b91507fffffffffffffffffffffffffffffffffffffffffffffffffffffffffffffffff821415613f1c57613f1b613d27565b5b600182019050919050565b7f4e487b7100000000000000000000000000000000000000000000000000000000600052601260045260246000fd5b6000613f6182612ab1565b9150613f6c83612ab1565b925082613f7c57613f7b613f27565b5b828204905092915050565b6000613f9282612ab1565b9150613f9d83612ab1565b925082613fad57613fac613f27565b5b828206905092915050565b7f4552433732313a206d696e7420746f20746865207a65726f2061646472657373600082015250565b6000613fee602083612a01565b9150613ff982613fb8565b602082019050919050565b6000602082019050818103600083015261401d81613fe1565b9050919050565b7f4552433732313a20746f6b656e20616c7265616479206d696e74656400000000600082015250565b600061405a601c83612a01565b915061406582614024565b602082019050919050565b600060208201905081810360008301526140898161404d565b9050919050565b7f45524337323155524953746f726167653a2055524920736574206f66206e6f6e60008201527f6578697374656e7420746f6b656e000000000000000000000000000000000000602082015250565b60006140ec602e83612a01565b91506140f782614090565b604082019050919050565b6000602082019050818103600083015261411b816140df565b9050919050565b600081519050919050565b600082825260208201905092915050565b600061414982614122565b614153818561412d565b9350614163818560208601612a12565b61416c81612a45565b840191505092915050565b600060808201905061418c6000830187612b46565b6141996020830186612b46565b6141a66040830185612bdc565b81810360608301526141b8818461413e565b905095945050505050565b6000815190506141d281612967565b92915050565b6000602082840312156141ee576141ed612931565b5b60006141fc848285016141c3565b91505092915050565b7f4e487b7100000000000000000000000000000000000000000000000000000000600052603160045260246000fdfea2646970667358221220dd0ec152555a0706890bf87408300c13a7ffa9347a8c7b0d2f2f1c11c6fa085a64736f6c634300080a0033",
  "immutableReferences": {},
  "source": "// SPDX-License-Identifier: MIT\r\npragma solidity >=0.4.22 <0.9.0;\r\n\r\nimport \"@openzeppelin/contracts/access/Ownable.sol\";\r\nimport \"@openzeppelin/contracts/token/ERC721/ERC721.sol\";\r\nimport \"@openzeppelin/contracts/token/ERC721/extensions/ERC721Enumerable.sol\";\r\nimport \"@openzeppelin/contracts/utils/Counters.sol\";\r\n\r\ncontract VerifyMe is Ownable {\r\n    address private admin;\r\n    struct IssuerRequest {\r\n        address issuerAddress;\r\n        string issuerCID;\r\n        bool approval; \r\n    }\r\n    struct IssuerContract {\r\n        address contractaddress;\r\n        string contractName;\r\n        uint256 requestIndex;\r\n        string contractType;\r\n    }\r\n    struct IssuerContractArray {\r\n        IssuerContract[] contractArray;\r\n    }\r\n    IssuerRequest[] public issuerRequest;\r\n    uint256 public approvalCounts;\r\n    mapping(address=>IssuerContractArray) issuerListOfContract;\r\n    mapping(address=>bool) public issuerAddress;\r\n    \r\n    constructor() {\r\n        admin = msg.sender;\r\n    }\r\n\r\n    function applyForRequest(string memory _issuerCID) public {\r\n        require(!issuerAddress[msg.sender],'Alaredy register as Issuer.');\r\n        issuerRequest.push(IssuerRequest({\r\n            issuerAddress:msg.sender,\r\n            issuerCID:_issuerCID,\r\n            approval:false\r\n        }));\r\n        issuerAddress[msg.sender] = true;\r\n    }\r\n\r\n    function approveRequest(uint256 _index) public {\r\n        require(issuerRequest[_index].approval == false, 'Issuer request already approved.');\r\n        issuerRequest[_index].approval = true;\r\n        approvalCounts = approvalCounts + 1;\r\n    }\r\n\r\n    function issuerRequestCount() public view returns (uint256 result)  {\r\n        uint256 length = issuerRequest.length;\r\n        return length;\r\n    }\r\n\r\n    function getOwnerContract(address _issuerAddress) public view returns(IssuerContract[] memory) {\r\n        return(issuerListOfContract[_issuerAddress].contractArray);\r\n    }\r\n\r\n    function createNewContract(uint256 _index,string memory _contractType,string memory _contractName) public {\r\n        require(issuerRequest[_index].issuerAddress == msg.sender && issuerRequest[_index].approval == true,'Issuer Request is not approved.');\r\n        address newContract = address(new physicalProduct(msg.sender));\r\n        \r\n        issuerListOfContract[msg.sender].contractArray.push(IssuerContract({\r\n            contractaddress:newContract,\r\n            contractName:_contractName,\r\n            requestIndex: _index,\r\n            contractType: _contractType\r\n        }));\r\n    }\r\n}\r\n\r\ncontract physicalProduct is Ownable,ERC721,ERC721Enumerable {\r\n    using Counters for Counters.Counter;\r\n    Counters.Counter private _tokenIds;\r\n\r\n    struct Claimer {\r\n        string secretPassword;\r\n        string secretPin;\r\n        address claimerAddress;\r\n        bool claimStatus;\r\n        string email;\r\n    }\r\n    address admin;\r\n    mapping(uint256=>Claimer) tokenIdToClaimer;\r\n    mapping(uint256 => string) private _tokenURIs;\r\n   \r\n\r\n    constructor(address issuerAddress) ERC721('Physical Certificate NFT','PCN'){\r\n        admin = issuerAddress;\r\n    }\r\n    modifier restricted() {\r\n        require(admin == msg.sender);\r\n        _;\r\n    }\r\n\r\n    function mint(string memory _secretPassword,string memory _secretPin,string memory _tokenURI) public payable restricted returns(uint256){\r\n        require(msg.value >= 0.01 ether, 'Require minimum minting amount.');\r\n        uint256 _newTokenId = _tokenIds.current();\r\n        _mint(msg.sender,_newTokenId);\r\n        _tokenIds.increment();\r\n        _setTokenURI(_newTokenId, _tokenURI);\r\n        setClaimerDetail(_secretPassword,_secretPin,_newTokenId,'');\r\n        \r\n        return _newTokenId;\r\n    }\r\n\r\n    function _setTokenURI(uint256 tokenId, string memory _tokenURI) internal virtual {\r\n        require(_exists(tokenId), \"ERC721URIStorage: URI set of nonexistent token\");\r\n        _tokenURIs[tokenId] = _tokenURI;\r\n    }\r\n\r\n    function setClaimerDetail(string memory _secretPassword,string memory _secretPin,uint256 _tokenId,string memory _email) internal {\r\n        Claimer memory newClaimerDetails = Claimer({\r\n            secretPassword:_secretPassword,\r\n            secretPin:_secretPin,\r\n            claimerAddress: address(0x00),\r\n            claimStatus:false,\r\n            email:_email\r\n        });\r\n        tokenIdToClaimer[_tokenId] = newClaimerDetails;\r\n\r\n    }\r\n\r\n    function claimProduct(uint256 _tokenId,string memory _secretPassword,string memory _secretPin,string memory _email,address _toAccount) public returns (bool result){\r\n        require(_exists(_tokenId), 'This Tokenid not exists.');\r\n        require(tokenIdToClaimer[_tokenId].claimStatus == false, 'This product alredy claimed.');\r\n        require((keccak256(abi.encodePacked(tokenIdToClaimer[_tokenId].secretPassword)) == keccak256(abi.encodePacked(_secretPassword)) && keccak256(abi.encodePacked(tokenIdToClaimer[_tokenId].secretPin)) == keccak256(abi.encodePacked(_secretPin))), 'This claimer is not authorize to claim certificate.');\r\n        _transfer(admin, _toAccount, _tokenId);\r\n        tokenIdToClaimer[_tokenId].claimerAddress = _toAccount;\r\n        tokenIdToClaimer[_tokenId].claimStatus = true;\r\n        tokenIdToClaimer[_tokenId].email = _email;\r\n        return tokenIdToClaimer[_tokenId].claimStatus;\r\n    }\r\n\r\n    function checkAuthenticity(uint256 _tokenId,string memory _secretPin) public view returns (string memory result) {\r\n        require(_exists(_tokenId), 'This Tokenid not exists.');\r\n        require(keccak256(abi.encodePacked(tokenIdToClaimer[_tokenId].secretPin)) == keccak256(abi.encodePacked(_secretPin)), 'Entered pin is not valid.');\r\n        return _tokenURIs[_tokenId];\r\n    }\r\n\r\n    function getClaimStatus(uint256 _tokenId) public view returns (bool result){\r\n        require(_exists(_tokenId), 'This Tokenid not exists.');\r\n        return (tokenIdToClaimer[_tokenId].claimStatus);\r\n    }\r\n    \r\n\r\n    function supportsInterface(bytes4 interfaceId) public view virtual override(ERC721, ERC721Enumerable) returns (bool) {\r\n        return super.supportsInterface(interfaceId);\r\n    }\r\n\r\n    function _beforeTokenTransfer(\r\n        address from,\r\n        address to,\r\n        uint256 tokenId\r\n    ) internal virtual override(ERC721, ERC721Enumerable) {\r\n        super._beforeTokenTransfer(from, to, tokenId);\r\n    }\r\n\r\n}",
  "sourcePath": "F:\\Blockchain\\VerifyMe\\Backend\\contracts\\VerifyMe.sol",
  "compiler": {
    "name": "solc",
    "version": "0.8.10+commit.fc410830.Emscripten.clang"
  },
  "schemaVersion": "3.4.3",
  "updatedAt": "2023-02-19T06:25:43.018Z",
  "devdoc": {
    "kind": "dev",
    "methods": {
      "approve(address,uint256)": {
        "details": "See {IERC721-approve}."
      },
      "balanceOf(address)": {
        "details": "See {IERC721-balanceOf}."
      },
      "getApproved(uint256)": {
        "details": "See {IERC721-getApproved}."
      },
      "isApprovedForAll(address,address)": {
        "details": "See {IERC721-isApprovedForAll}."
      },
      "name()": {
        "details": "See {IERC721Metadata-name}."
      },
      "owner()": {
        "details": "Returns the address of the current owner."
      },
      "ownerOf(uint256)": {
        "details": "See {IERC721-ownerOf}."
      },
      "renounceOwnership()": {
        "details": "Leaves the contract without owner. It will not be possible to call `onlyOwner` functions anymore. Can only be called by the current owner. NOTE: Renouncing ownership will leave the contract without an owner, thereby removing any functionality that is only available to the owner."
      },
      "safeTransferFrom(address,address,uint256)": {
        "details": "See {IERC721-safeTransferFrom}."
      },
      "safeTransferFrom(address,address,uint256,bytes)": {
        "details": "See {IERC721-safeTransferFrom}."
      },
      "setApprovalForAll(address,bool)": {
        "details": "See {IERC721-setApprovalForAll}."
      },
      "symbol()": {
        "details": "See {IERC721Metadata-symbol}."
      },
      "tokenByIndex(uint256)": {
        "details": "See {IERC721Enumerable-tokenByIndex}."
      },
      "tokenOfOwnerByIndex(address,uint256)": {
        "details": "See {IERC721Enumerable-tokenOfOwnerByIndex}."
      },
      "tokenURI(uint256)": {
        "details": "See {IERC721Metadata-tokenURI}."
      },
      "totalSupply()": {
        "details": "See {IERC721Enumerable-totalSupply}."
      },
      "transferFrom(address,address,uint256)": {
        "details": "See {IERC721-transferFrom}."
      },
      "transferOwnership(address)": {
        "details": "Transfers ownership of the contract to a new account (`newOwner`). Can only be called by the current owner."
      }
    },
    "version": 1
  },
  "userdoc": {
    "kind": "user",
    "methods": {},
    "version": 1
  }
}