{
  "contractName": "VerifyMe",
  "abi": [
    {
      "inputs": [],
      "stateMutability": "nonpayable",
      "type": "constructor"
    },
    {
      "anonymous": false,
      "inputs": [
        {
          "indexed": true,
          "internalType": "address",
          "name": "previousOwner",
          "type": "address"
        },
        {
          "indexed": true,
          "internalType": "address",
          "name": "newOwner",
          "type": "address"
        }
      ],
      "name": "OwnershipTransferred",
      "type": "event"
    },
    {
      "inputs": [],
      "name": "approvalCounts",
      "outputs": [
        {
          "internalType": "uint256",
          "name": "",
          "type": "uint256"
        }
      ],
      "stateMutability": "view",
      "type": "function",
      "constant": true
    },
    {
      "inputs": [
        {
          "internalType": "address",
          "name": "",
          "type": "address"
        }
      ],
      "name": "issuerAddress",
      "outputs": [
        {
          "internalType": "bool",
          "name": "",
          "type": "bool"
        }
      ],
      "stateMutability": "view",
      "type": "function",
      "constant": true
    },
    {
      "inputs": [
        {
          "internalType": "uint256",
          "name": "",
          "type": "uint256"
        }
      ],
      "name": "issuerRequest",
      "outputs": [
        {
          "internalType": "address",
          "name": "issuerAddress",
          "type": "address"
        },
        {
          "internalType": "string",
          "name": "issuerCID",
          "type": "string"
        },
        {
          "internalType": "bool",
          "name": "approval",
          "type": "bool"
        }
      ],
      "stateMutability": "view",
      "type": "function",
      "constant": true
    },
    {
      "inputs": [],
      "name": "owner",
      "outputs": [
        {
          "internalType": "address",
          "name": "",
          "type": "address"
        }
      ],
      "stateMutability": "view",
      "type": "function",
      "constant": true
    },
    {
      "inputs": [],
      "name": "renounceOwnership",
      "outputs": [],
      "stateMutability": "nonpayable",
      "type": "function"
    },
    {
      "inputs": [
        {
          "internalType": "address",
          "name": "newOwner",
          "type": "address"
        }
      ],
      "name": "transferOwnership",
      "outputs": [],
      "stateMutability": "nonpayable",
      "type": "function"
    },
    {
      "inputs": [
        {
          "internalType": "string",
          "name": "_issuerCID",
          "type": "string"
        }
      ],
      "name": "applyForRequest",
      "outputs": [],
      "stateMutability": "nonpayable",
      "type": "function"
    },
    {
      "inputs": [
        {
          "internalType": "uint256",
          "name": "_index",
          "type": "uint256"
        }
      ],
      "name": "approveRequest",
      "outputs": [],
      "stateMutability": "nonpayable",
      "type": "function"
    },
    {
      "inputs": [],
      "name": "issuerRequestCount",
      "outputs": [
        {
          "internalType": "uint256",
          "name": "result",
          "type": "uint256"
        }
      ],
      "stateMutability": "view",
      "type": "function",
      "constant": true
    },
    {
      "inputs": [
        {
          "internalType": "address",
          "name": "_issuerAddress",
          "type": "address"
        }
      ],
      "name": "getOwnerContract",
      "outputs": [
        {
          "components": [
            {
              "internalType": "address",
              "name": "contractaddress",
              "type": "address"
            },
            {
              "internalType": "string",
              "name": "contractName",
              "type": "string"
            },
            {
              "internalType": "uint256",
              "name": "requestIndex",
              "type": "uint256"
            },
            {
              "internalType": "string",
              "name": "contractType",
              "type": "string"
            }
          ],
          "internalType": "struct VerifyMe.IssuerContract[]",
          "name": "",
          "type": "tuple[]"
        }
      ],
      "stateMutability": "view",
      "type": "function",
      "constant": true
    },
    {
      "inputs": [
        {
          "internalType": "uint256",
          "name": "_index",
          "type": "uint256"
        },
        {
          "internalType": "string",
          "name": "_contractType",
          "type": "string"
        },
        {
          "internalType": "string",
          "name": "_contractName",
          "type": "string"
        }
      ],
      "name": "createNewContract",
      "outputs": [],
      "stateMutability": "nonpayable",
      "type": "function"
    }
  ],
  "bytecode": "0x608060405234801561001057600080fd5b5061002d61002261007360201b60201c565b61007b60201b60201c565b33600160006101000a81548173ffffffffffffffffffffffffffffffffffffffff021916908373ffffffffffffffffffffffffffffffffffffffff16021790555061013f565b600033905090565b60008060009054906101000a900473ffffffffffffffffffffffffffffffffffffffff169050816000806101000a81548173ffffffffffffffffffffffffffffffffffffffff021916908373ffffffffffffffffffffffffffffffffffffffff1602179055508173ffffffffffffffffffffffffffffffffffffffff168173ffffffffffffffffffffffffffffffffffffffff167f8be0079c531659141344cd1fd0a4f28419497f9722a3daafe3b4186f6b6457e060405160405180910390a35050565b6156c9806200014f6000396000f3fe60806040523480156200001157600080fd5b5060043610620000b85760003560e01c8063ca4f20ce116200007b578063ca4f20ce1462000165578063d480e74c146200019b578063d7d1bbdb14620001d1578063d9d989a014620001f1578063e929dbb01462000213578063f2fde38b146200023357620000b8565b806302fb063214620000bd5780635e82c51414620000df578063715018a614620001175780638da5cb5b1462000123578063b765f1dd1462000145575b600080fd5b620000c762000253565b604051620000d6919062000e3e565b60405180910390f35b620000fd6004803603810190620000f7919062000ea0565b62000259565b6040516200010e9392919062000fd8565b60405180910390f35b6200012162000351565b005b6200012d620003e2565b6040516200013c91906200101c565b60405180910390f35b6200016360048036038101906200015d91906200118a565b6200040b565b005b6200018360048036038101906200017d91906200120c565b620005dd565b604051620001929190620013f4565b60405180910390f35b620001b96004803603810190620001b391906200120c565b62000814565b604051620001c8919062001418565b60405180910390f35b620001ef6004803603810190620001e9919062000ea0565b62000834565b005b620001fb6200090e565b6040516200020a919062000e3e565b60405180910390f35b6200023160048036038101906200022b919062001435565b62000920565b005b6200025160048036038101906200024b91906200120c565b62000b95565b005b60035481565b600281815481106200026a57600080fd5b90600052602060002090600302016000915090508060000160009054906101000a900473ffffffffffffffffffffffffffffffffffffffff1690806001018054620002b590620014fe565b80601f0160208091040260200160405190810160405280929190818152602001828054620002e390620014fe565b8015620003345780601f10620003085761010080835404028352916020019162000334565b820191906000526020600020905b8154815290600101906020018083116200031657829003601f168201915b5050505050908060020160009054906101000a900460ff16905083565b6200035b62000c99565b73ffffffffffffffffffffffffffffffffffffffff166200037b620003e2565b73ffffffffffffffffffffffffffffffffffffffff1614620003d4576040517f08c379a0000000000000000000000000000000000000000000000000000000008152600401620003cb9062001584565b60405180910390fd5b620003e0600062000ca1565b565b60008060009054906101000a900473ffffffffffffffffffffffffffffffffffffffff16905090565b600560003373ffffffffffffffffffffffffffffffffffffffff1673ffffffffffffffffffffffffffffffffffffffff16815260200190815260200160002060009054906101000a900460ff16156200049b576040517f08c379a00000000000000000000000000000000000000000000000000000000081526004016200049290620015f6565b60405180910390fd5b600260405180606001604052803373ffffffffffffffffffffffffffffffffffffffff16815260200183815260200160001515815250908060018154018082558091505060019003906000526020600020906003020160009091909190915060008201518160000160006101000a81548173ffffffffffffffffffffffffffffffffffffffff021916908373ffffffffffffffffffffffffffffffffffffffff16021790555060208201518160010190805190602001906200055f92919062000d65565b5060408201518160020160006101000a81548160ff02191690831515021790555050506001600560003373ffffffffffffffffffffffffffffffffffffffff1673ffffffffffffffffffffffffffffffffffffffff16815260200190815260200160002060006101000a81548160ff02191690831515021790555050565b6060600460008373ffffffffffffffffffffffffffffffffffffffff1673ffffffffffffffffffffffffffffffffffffffff168152602001908152602001600020600001805480602002602001604051908101604052809291908181526020016000905b828210156200080957838290600052602060002090600402016040518060800160405290816000820160009054906101000a900473ffffffffffffffffffffffffffffffffffffffff1673ffffffffffffffffffffffffffffffffffffffff1673ffffffffffffffffffffffffffffffffffffffff168152602001600182018054620006cd90620014fe565b80601f0160208091040260200160405190810160405280929190818152602001828054620006fb90620014fe565b80156200074c5780601f1062000720576101008083540402835291602001916200074c565b820191906000526020600020905b8154815290600101906020018083116200072e57829003601f168201915b50505050508152602001600282015481526020016003820180546200077190620014fe565b80601f01602080910402602001604051908101604052809291908181526020018280546200079f90620014fe565b8015620007f05780601f10620007c457610100808354040283529160200191620007f0565b820191906000526020600020905b815481529060010190602001808311620007d257829003601f168201915b5050505050815250508152602001906001019062000641565b505050509050919050565b60056020528060005260406000206000915054906101000a900460ff1681565b60001515600282815481106200084f576200084e62001618565b5b906000526020600020906003020160020160009054906101000a900460ff16151514620008b3576040517f08c379a0000000000000000000000000000000000000000000000000000000008152600401620008aa9062001697565b60405180910390fd5b600160028281548110620008cc57620008cb62001618565b5b906000526020600020906003020160020160006101000a81548160ff0219169083151502179055506001600354620009059190620016e8565b60038190555050565b60008060028054905090508091505090565b3373ffffffffffffffffffffffffffffffffffffffff16600284815481106200094e576200094d62001618565b5b906000526020600020906003020160000160009054906101000a900473ffffffffffffffffffffffffffffffffffffffff1673ffffffffffffffffffffffffffffffffffffffff16148015620009dd57506001151560028481548110620009ba57620009b962001618565b5b906000526020600020906003020160020160009054906101000a900460ff161515145b62000a1f576040517f08c379a000000000000000000000000000000000000000000000000000000000815260040162000a169062001795565b60405180910390fd5b60003360405162000a309062000df6565b62000a3c91906200101c565b604051809103906000f08015801562000a59573d6000803e3d6000fd5b509050600460003373ffffffffffffffffffffffffffffffffffffffff1673ffffffffffffffffffffffffffffffffffffffff16815260200190815260200160002060000160405180608001604052808373ffffffffffffffffffffffffffffffffffffffff16815260200184815260200186815260200185815250908060018154018082558091505060019003906000526020600020906004020160009091909190915060008201518160000160006101000a81548173ffffffffffffffffffffffffffffffffffffffff021916908373ffffffffffffffffffffffffffffffffffffffff160217905550602082015181600101908051906020019062000b6392919062000d65565b5060408201518160020155606082015181600301908051906020019062000b8c92919062000d65565b50505050505050565b62000b9f62000c99565b73ffffffffffffffffffffffffffffffffffffffff1662000bbf620003e2565b73ffffffffffffffffffffffffffffffffffffffff161462000c18576040517f08c379a000000000000000000000000000000000000000000000000000000000815260040162000c0f9062001584565b60405180910390fd5b600073ffffffffffffffffffffffffffffffffffffffff168173ffffffffffffffffffffffffffffffffffffffff16141562000c8b576040517f08c379a000000000000000000000000000000000000000000000000000000000815260040162000c82906200182d565b60405180910390fd5b62000c968162000ca1565b50565b600033905090565b60008060009054906101000a900473ffffffffffffffffffffffffffffffffffffffff169050816000806101000a81548173ffffffffffffffffffffffffffffffffffffffff021916908373ffffffffffffffffffffffffffffffffffffffff1602179055508173ffffffffffffffffffffffffffffffffffffffff168173ffffffffffffffffffffffffffffffffffffffff167f8be0079c531659141344cd1fd0a4f28419497f9722a3daafe3b4186f6b6457e060405160405180910390a35050565b82805462000d7390620014fe565b90600052602060002090601f01602090048101928262000d97576000855562000de3565b82601f1062000db257805160ff191683800117855562000de3565b8280016001018555821562000de3579182015b8281111562000de257825182559160200191906001019062000dc5565b5b50905062000df2919062000e04565b5090565b613e44806200185083390190565b5b8082111562000e1f57600081600090555060010162000e05565b5090565b6000819050919050565b62000e388162000e23565b82525050565b600060208201905062000e55600083018462000e2d565b92915050565b6000604051905090565b600080fd5b600080fd5b62000e7a8162000e23565b811462000e8657600080fd5b50565b60008135905062000e9a8162000e6f565b92915050565b60006020828403121562000eb95762000eb862000e65565b5b600062000ec98482850162000e89565b91505092915050565b600073ffffffffffffffffffffffffffffffffffffffff82169050919050565b600062000eff8262000ed2565b9050919050565b62000f118162000ef2565b82525050565b600081519050919050565b600082825260208201905092915050565b60005b8381101562000f5357808201518184015260208101905062000f36565b8381111562000f63576000848401525b50505050565b6000601f19601f8301169050919050565b600062000f878262000f17565b62000f93818562000f22565b935062000fa581856020860162000f33565b62000fb08162000f69565b840191505092915050565b60008115159050919050565b62000fd28162000fbb565b82525050565b600060608201905062000fef600083018662000f06565b818103602083015262001003818562000f7a565b905062001014604083018462000fc7565b949350505050565b600060208201905062001033600083018462000f06565b92915050565b600080fd5b600080fd5b7f4e487b7100000000000000000000000000000000000000000000000000000000600052604160045260246000fd5b6200107d8262000f69565b810181811067ffffffffffffffff821117156200109f576200109e62001043565b5b80604052505050565b6000620010b462000e5b565b9050620010c2828262001072565b919050565b600067ffffffffffffffff821115620010e557620010e462001043565b5b620010f08262000f69565b9050602081019050919050565b82818337600083830152505050565b6000620011236200111d84620010c7565b620010a8565b9050828152602081018484840111156200114257620011416200103e565b5b6200114f848285620010fd565b509392505050565b600082601f8301126200116f576200116e62001039565b5b8135620011818482602086016200110c565b91505092915050565b600060208284031215620011a357620011a262000e65565b5b600082013567ffffffffffffffff811115620011c457620011c362000e6a565b5b620011d28482850162001157565b91505092915050565b620011e68162000ef2565b8114620011f257600080fd5b50565b6000813590506200120681620011db565b92915050565b60006020828403121562001225576200122462000e65565b5b60006200123584828501620011f5565b91505092915050565b600081519050919050565b600082825260208201905092915050565b6000819050602082019050919050565b620012758162000ef2565b82525050565b600082825260208201905092915050565b6000620012998262000f17565b620012a581856200127b565b9350620012b781856020860162000f33565b620012c28162000f69565b840191505092915050565b620012d88162000e23565b82525050565b6000608083016000830151620012f860008601826200126a565b50602083015184820360208601526200131282826200128c565b9150506040830151620013296040860182620012cd565b50606083015184820360608601526200134382826200128c565b9150508091505092915050565b60006200135e8383620012de565b905092915050565b6000602082019050919050565b600062001380826200123e565b6200138c818562001249565b935083602082028501620013a0856200125a565b8060005b85811015620013e25784840389528151620013c0858262001350565b9450620013cd8362001366565b925060208a01995050600181019050620013a4565b50829750879550505050505092915050565b6000602082019050818103600083015262001410818462001373565b905092915050565b60006020820190506200142f600083018462000fc7565b92915050565b60008060006060848603121562001451576200145062000e65565b5b6000620014618682870162000e89565b935050602084013567ffffffffffffffff81111562001485576200148462000e6a565b5b620014938682870162001157565b925050604084013567ffffffffffffffff811115620014b757620014b662000e6a565b5b620014c58682870162001157565b9150509250925092565b7f4e487b7100000000000000000000000000000000000000000000000000000000600052602260045260246000fd5b600060028204905060018216806200151757607f821691505b602082108114156200152e576200152d620014cf565b5b50919050565b7f4f776e61626c653a2063616c6c6572206973206e6f7420746865206f776e6572600082015250565b60006200156c60208362000f22565b9150620015798262001534565b602082019050919050565b600060208201905081810360008301526200159f816200155d565b9050919050565b7f416c6172656479207265676973746572206173204973737565722e0000000000600082015250565b6000620015de601b8362000f22565b9150620015eb82620015a6565b602082019050919050565b600060208201905081810360008301526200161181620015cf565b9050919050565b7f4e487b7100000000000000000000000000000000000000000000000000000000600052603260045260246000fd5b7f497373756572207265717565737420616c726561647920617070726f7665642e600082015250565b60006200167f60208362000f22565b91506200168c8262001647565b602082019050919050565b60006020820190508181036000830152620016b28162001670565b9050919050565b7f4e487b7100000000000000000000000000000000000000000000000000000000600052601160045260246000fd5b6000620016f58262000e23565b9150620017028362000e23565b9250827fffffffffffffffffffffffffffffffffffffffffffffffffffffffffffffffff038211156200173a5762001739620016b9565b5b828201905092915050565b7f4973737565722052657175657374206973206e6f7420617070726f7665642e00600082015250565b60006200177d601f8362000f22565b91506200178a8262001745565b602082019050919050565b60006020820190508181036000830152620017b0816200176e565b9050919050565b7f4f776e61626c653a206e6577206f776e657220697320746865207a65726f206160008201527f6464726573730000000000000000000000000000000000000000000000000000602082015250565b60006200181560268362000f22565b91506200182282620017b7565b604082019050919050565b60006020820190508181036000830152620018488162001806565b905091905056fe60806040523480156200001157600080fd5b5060405162003e4438038062003e44833981810160405281019062000037919062000325565b6040518060400160405280601881526020017f506879736963616c204365727469666963617465204e465400000000000000008152506040518060400160405280600381526020017f50434e0000000000000000000000000000000000000000000000000000000000815250620000c3620000b76200013f60201b60201c565b6200014760201b60201c565b8160019080519060200190620000db9291906200020b565b508060029080519060200190620000f49291906200020b565b50505080600860006101000a81548173ffffffffffffffffffffffffffffffffffffffff021916908373ffffffffffffffffffffffffffffffffffffffff16021790555050620003bc565b600033905090565b60008060009054906101000a900473ffffffffffffffffffffffffffffffffffffffff169050816000806101000a81548173ffffffffffffffffffffffffffffffffffffffff021916908373ffffffffffffffffffffffffffffffffffffffff1602179055508173ffffffffffffffffffffffffffffffffffffffff168173ffffffffffffffffffffffffffffffffffffffff167f8be0079c531659141344cd1fd0a4f28419497f9722a3daafe3b4186f6b6457e060405160405180910390a35050565b828054620002199062000386565b90600052602060002090601f0160209004810192826200023d576000855562000289565b82601f106200025857805160ff191683800117855562000289565b8280016001018555821562000289579182015b82811115620002885782518255916020019190600101906200026b565b5b5090506200029891906200029c565b5090565b5b80821115620002b75760008160009055506001016200029d565b5090565b600080fd5b600073ffffffffffffffffffffffffffffffffffffffff82169050919050565b6000620002ed82620002c0565b9050919050565b620002ff81620002e0565b81146200030b57600080fd5b50565b6000815190506200031f81620002f4565b92915050565b6000602082840312156200033e576200033d620002bb565b5b60006200034e848285016200030e565b91505092915050565b7f4e487b7100000000000000000000000000000000000000000000000000000000600052602260045260246000fd5b600060028204905060018216806200039f57607f821691505b60208210811415620003b657620003b562000357565b5b50919050565b613a7880620003cc6000396000f3fe60806040526004361061011f5760003560e01c806370a08231116100a0578063b88d4fde11610064578063b88d4fde1461040b578063c87b56dd14610434578063d645ddf614610471578063e985e9c5146104a1578063f2fde38b146104de5761011f565b806370a0823114610338578063715018a6146103755780638da5cb5b1461038c57806395d89b41146103b7578063a22cb465146103e25761011f565b806336dbd2f9116100e757806336dbd2f91461021b57806342842e0e14610258578063448c69e9146102815780636352211e146102be57806367a466d4146102fb5761011f565b806301ffc9a71461012457806306fdde0314610161578063081812fc1461018c578063095ea7b3146101c957806323b872dd146101f2575b600080fd5b34801561013057600080fd5b5061014b600480360381019061014691906122f4565b610507565b604051610158919061233c565b60405180910390f35b34801561016d57600080fd5b506101766105e9565b60405161018391906123f0565b60405180910390f35b34801561019857600080fd5b506101b360048036038101906101ae9190612448565b61067b565b6040516101c091906124b6565b60405180910390f35b3480156101d557600080fd5b506101f060048036038101906101eb91906124fd565b610700565b005b3480156101fe57600080fd5b506102196004803603810190610214919061253d565b610818565b005b34801561022757600080fd5b50610242600480360381019061023d9190612448565b610878565b60405161024f919061233c565b60405180910390f35b34801561026457600080fd5b5061027f600480360381019061027a919061253d565b6108ed565b005b34801561028d57600080fd5b506102a860048036038101906102a391906126c5565b61090d565b6040516102b5919061233c565b60405180910390f35b3480156102ca57600080fd5b506102e560048036038101906102e09190612448565b610bdb565b6040516102f291906124b6565b60405180910390f35b34801561030757600080fd5b50610322600480360381019061031d9190612794565b610c8d565b60405161032f91906123f0565b60405180910390f35b34801561034457600080fd5b5061035f600480360381019061035a91906127f0565b610e1e565b60405161036c919061282c565b60405180910390f35b34801561038157600080fd5b5061038a610ed6565b005b34801561039857600080fd5b506103a1610f5e565b6040516103ae91906124b6565b60405180910390f35b3480156103c357600080fd5b506103cc610f87565b6040516103d991906123f0565b60405180910390f35b3480156103ee57600080fd5b5061040960048036038101906104049190612873565b611019565b005b34801561041757600080fd5b50610432600480360381019061042d9190612954565b61102f565b005b34801561044057600080fd5b5061045b60048036038101906104569190612448565b611091565b60405161046891906123f0565b60405180910390f35b61048b600480360381019061048691906129d7565b611138565b604051610498919061282c565b60405180910390f35b3480156104ad57600080fd5b506104c860048036038101906104c39190612a7e565b611230565b6040516104d5919061233c565b60405180910390f35b3480156104ea57600080fd5b50610505600480360381019061050091906127f0565b6112c4565b005b60007f80ac58cd000000000000000000000000000000000000000000000000000000007bffffffffffffffffffffffffffffffffffffffffffffffffffffffff1916827bffffffffffffffffffffffffffffffffffffffffffffffffffffffff191614806105d257507f5b5e139f000000000000000000000000000000000000000000000000000000007bffffffffffffffffffffffffffffffffffffffffffffffffffffffff1916827bffffffffffffffffffffffffffffffffffffffffffffffffffffffff1916145b806105e257506105e1826113bc565b5b9050919050565b6060600180546105f890612aed565b80601f016020809104026020016040519081016040528092919081815260200182805461062490612aed565b80156106715780601f1061064657610100808354040283529160200191610671565b820191906000526020600020905b81548152906001019060200180831161065457829003601f168201915b5050505050905090565b600061068682611426565b6106c5576040517f08c379a00000000000000000000000000000000000000000000000000000000081526004016106bc90612b91565b60405180910390fd5b6005600083815260200190815260200160002060009054906101000a900473ffffffffffffffffffffffffffffffffffffffff169050919050565b600061070b82610bdb565b90508073ffffffffffffffffffffffffffffffffffffffff168373ffffffffffffffffffffffffffffffffffffffff16141561077c576040517f08c379a000000000000000000000000000000000000000000000000000000000815260040161077390612c23565b60405180910390fd5b8073ffffffffffffffffffffffffffffffffffffffff1661079b611492565b73ffffffffffffffffffffffffffffffffffffffff1614806107ca57506107c9816107c4611492565b611230565b5b610809576040517f08c379a000000000000000000000000000000000000000000000000000000000815260040161080090612cb5565b60405180910390fd5b610813838361149a565b505050565b610829610823611492565b82611553565b610868576040517f08c379a000000000000000000000000000000000000000000000000000000000815260040161085f90612d47565b60405180910390fd5b610873838383611631565b505050565b600061088382611426565b6108c2576040517f08c379a00000000000000000000000000000000000000000000000000000000081526004016108b990612db3565b60405180910390fd5b6009600083815260200190815260200160002060020160149054906101000a900460ff169050919050565b6109088383836040518060200160405280600081525061102f565b505050565b600061091886611426565b610957576040517f08c379a000000000000000000000000000000000000000000000000000000000815260040161094e90612db3565b60405180910390fd5b600015156009600088815260200190815260200160002060020160149054906101000a900460ff161515146109c1576040517f08c379a00000000000000000000000000000000000000000000000000000000081526004016109b890612e1f565b60405180910390fd5b846040516020016109d29190612e7b565b6040516020818303038152906040528051906020012060096000888152602001908152602001600020600001604051602001610a0e9190612f26565b60405160208183030381529060405280519060200120148015610a91575083604051602001610a3d9190612e7b565b6040516020818303038152906040528051906020012060096000888152602001908152602001600020600101604051602001610a799190612f26565b60405160208183030381529060405280519060200120145b610ad0576040517f08c379a0000000000000000000000000000000000000000000000000000000008152600401610ac790612faf565b60405180910390fd5b610afd600860009054906101000a900473ffffffffffffffffffffffffffffffffffffffff168388611631565b816009600088815260200190815260200160002060020160006101000a81548173ffffffffffffffffffffffffffffffffffffffff021916908373ffffffffffffffffffffffffffffffffffffffff16021790555060016009600088815260200190815260200160002060020160146101000a81548160ff02191690831515021790555082600960008881526020019081526020016000206003019080519060200190610bab9291906121e5565b506009600087815260200190815260200160002060020160149054906101000a900460ff16905095945050505050565b6000806003600084815260200190815260200160002060009054906101000a900473ffffffffffffffffffffffffffffffffffffffff169050600073ffffffffffffffffffffffffffffffffffffffff168173ffffffffffffffffffffffffffffffffffffffff161415610c84576040517f08c379a0000000000000000000000000000000000000000000000000000000008152600401610c7b90613041565b60405180910390fd5b80915050919050565b6060610c9883611426565b610cd7576040517f08c379a0000000000000000000000000000000000000000000000000000000008152600401610cce90612db3565b60405180910390fd5b81604051602001610ce89190612e7b565b6040516020818303038152906040528051906020012060096000858152602001908152602001600020600101604051602001610d249190612f26565b6040516020818303038152906040528051906020012014610d7a576040517f08c379a0000000000000000000000000000000000000000000000000000000008152600401610d71906130ad565b60405180910390fd5b600a60008481526020019081526020016000208054610d9890612aed565b80601f0160208091040260200160405190810160405280929190818152602001828054610dc490612aed565b8015610e115780601f10610de657610100808354040283529160200191610e11565b820191906000526020600020905b815481529060010190602001808311610df457829003601f168201915b5050505050905092915050565b60008073ffffffffffffffffffffffffffffffffffffffff168273ffffffffffffffffffffffffffffffffffffffff161415610e8f576040517f08c379a0000000000000000000000000000000000000000000000000000000008152600401610e869061313f565b60405180910390fd5b600460008373ffffffffffffffffffffffffffffffffffffffff1673ffffffffffffffffffffffffffffffffffffffff168152602001908152602001600020549050919050565b610ede611492565b73ffffffffffffffffffffffffffffffffffffffff16610efc610f5e565b73ffffffffffffffffffffffffffffffffffffffff1614610f52576040517f08c379a0000000000000000000000000000000000000000000000000000000008152600401610f49906131ab565b60405180910390fd5b610f5c6000611898565b565b60008060009054906101000a900473ffffffffffffffffffffffffffffffffffffffff16905090565b606060028054610f9690612aed565b80601f0160208091040260200160405190810160405280929190818152602001828054610fc290612aed565b801561100f5780601f10610fe45761010080835404028352916020019161100f565b820191906000526020600020905b815481529060010190602001808311610ff257829003601f168201915b5050505050905090565b61102b611024611492565b838361195c565b5050565b61104061103a611492565b83611553565b61107f576040517f08c379a000000000000000000000000000000000000000000000000000000000815260040161107690612d47565b60405180910390fd5b61108b84848484611ac9565b50505050565b606061109c82611426565b6110db576040517f08c379a00000000000000000000000000000000000000000000000000000000081526004016110d29061323d565b60405180910390fd5b60006110e5611b25565b905060008151116111055760405180602001604052806000815250611130565b8061110f84611b3c565b60405160200161112092919061325d565b6040516020818303038152906040525b915050919050565b60003373ffffffffffffffffffffffffffffffffffffffff16600860009054906101000a900473ffffffffffffffffffffffffffffffffffffffff1673ffffffffffffffffffffffffffffffffffffffff161461119457600080fd5b662386f26fc100003410156111de576040517f08c379a00000000000000000000000000000000000000000000000000000000081526004016111d5906132cd565b60405180910390fd5b60006111ea6007611c9d565b90506111f63382611cab565b6112006007611e85565b61120a8184611e9b565b61122585858360405180602001604052806000815250611f0f565b809150509392505050565b6000600660008473ffffffffffffffffffffffffffffffffffffffff1673ffffffffffffffffffffffffffffffffffffffff16815260200190815260200160002060008373ffffffffffffffffffffffffffffffffffffffff1673ffffffffffffffffffffffffffffffffffffffff16815260200190815260200160002060009054906101000a900460ff16905092915050565b6112cc611492565b73ffffffffffffffffffffffffffffffffffffffff166112ea610f5e565b73ffffffffffffffffffffffffffffffffffffffff1614611340576040517f08c379a0000000000000000000000000000000000000000000000000000000008152600401611337906131ab565b60405180910390fd5b600073ffffffffffffffffffffffffffffffffffffffff168173ffffffffffffffffffffffffffffffffffffffff1614156113b0576040517f08c379a00000000000000000000000000000000000000000000000000000000081526004016113a79061335f565b60405180910390fd5b6113b981611898565b50565b60007f01ffc9a7000000000000000000000000000000000000000000000000000000007bffffffffffffffffffffffffffffffffffffffffffffffffffffffff1916827bffffffffffffffffffffffffffffffffffffffffffffffffffffffff1916149050919050565b60008073ffffffffffffffffffffffffffffffffffffffff166003600084815260200190815260200160002060009054906101000a900473ffffffffffffffffffffffffffffffffffffffff1673ffffffffffffffffffffffffffffffffffffffff1614159050919050565b600033905090565b816005600083815260200190815260200160002060006101000a81548173ffffffffffffffffffffffffffffffffffffffff021916908373ffffffffffffffffffffffffffffffffffffffff160217905550808273ffffffffffffffffffffffffffffffffffffffff1661150d83610bdb565b73ffffffffffffffffffffffffffffffffffffffff167f8c5be1e5ebec7d5bd14f71427d1e84f3dd0314c0f7b2291e5b200ac8c7c3b92560405160405180910390a45050565b600061155e82611426565b61159d576040517f08c379a0000000000000000000000000000000000000000000000000000000008152600401611594906133f1565b60405180910390fd5b60006115a883610bdb565b90508073ffffffffffffffffffffffffffffffffffffffff168473ffffffffffffffffffffffffffffffffffffffff1614806115ea57506115e98185611230565b5b8061162857508373ffffffffffffffffffffffffffffffffffffffff166116108461067b565b73ffffffffffffffffffffffffffffffffffffffff16145b91505092915050565b8273ffffffffffffffffffffffffffffffffffffffff1661165182610bdb565b73ffffffffffffffffffffffffffffffffffffffff16146116a7576040517f08c379a000000000000000000000000000000000000000000000000000000000815260040161169e90613483565b60405180910390fd5b600073ffffffffffffffffffffffffffffffffffffffff168273ffffffffffffffffffffffffffffffffffffffff161415611717576040517f08c379a000000000000000000000000000000000000000000000000000000000815260040161170e90613515565b60405180910390fd5b611722838383612030565b61172d60008261149a565b6001600460008573ffffffffffffffffffffffffffffffffffffffff1673ffffffffffffffffffffffffffffffffffffffff168152602001908152602001600020600082825461177d9190613564565b925050819055506001600460008473ffffffffffffffffffffffffffffffffffffffff1673ffffffffffffffffffffffffffffffffffffffff16815260200190815260200160002060008282546117d49190613598565b92505081905550816003600083815260200190815260200160002060006101000a81548173ffffffffffffffffffffffffffffffffffffffff021916908373ffffffffffffffffffffffffffffffffffffffff160217905550808273ffffffffffffffffffffffffffffffffffffffff168473ffffffffffffffffffffffffffffffffffffffff167fddf252ad1be2c89b69c2b068fc378daa952ba7f163c4a11628f55a4df523b3ef60405160405180910390a4611893838383612035565b505050565b60008060009054906101000a900473ffffffffffffffffffffffffffffffffffffffff169050816000806101000a81548173ffffffffffffffffffffffffffffffffffffffff021916908373ffffffffffffffffffffffffffffffffffffffff1602179055508173ffffffffffffffffffffffffffffffffffffffff168173ffffffffffffffffffffffffffffffffffffffff167f8be0079c531659141344cd1fd0a4f28419497f9722a3daafe3b4186f6b6457e060405160405180910390a35050565b8173ffffffffffffffffffffffffffffffffffffffff168373ffffffffffffffffffffffffffffffffffffffff1614156119cb576040517f08c379a00000000000000000000000000000000000000000000000000000000081526004016119c29061363a565b60405180910390fd5b80600660008573ffffffffffffffffffffffffffffffffffffffff1673ffffffffffffffffffffffffffffffffffffffff16815260200190815260200160002060008473ffffffffffffffffffffffffffffffffffffffff1673ffffffffffffffffffffffffffffffffffffffff16815260200190815260200160002060006101000a81548160ff0219169083151502179055508173ffffffffffffffffffffffffffffffffffffffff168373ffffffffffffffffffffffffffffffffffffffff167f17307eab39ab6107e8899845ad3d59bd9653f200f220920489ca2b5937696c3183604051611abc919061233c565b60405180910390a3505050565b611ad4848484611631565b611ae08484848461203a565b611b1f576040517f08c379a0000000000000000000000000000000000000000000000000000000008152600401611b16906136cc565b60405180910390fd5b50505050565b606060405180602001604052806000815250905090565b60606000821415611b84576040518060400160405280600181526020017f30000000000000000000000000000000000000000000000000000000000000008152509050611c98565b600082905060005b60008214611bb6578080611b9f906136ec565b915050600a82611baf9190613764565b9150611b8c565b60008167ffffffffffffffff811115611bd257611bd161259a565b5b6040519080825280601f01601f191660200182016040528015611c045781602001600182028036833780820191505090505b5090505b60008514611c9157600182611c1d9190613564565b9150600a85611c2c9190613795565b6030611c389190613598565b60f81b818381518110611c4e57611c4d6137c6565b5b60200101907effffffffffffffffffffffffffffffffffffffffffffffffffffffffffffff1916908160001a905350600a85611c8a9190613764565b9450611c08565b8093505050505b919050565b600081600001549050919050565b600073ffffffffffffffffffffffffffffffffffffffff168273ffffffffffffffffffffffffffffffffffffffff161415611d1b576040517f08c379a0000000000000000000000000000000000000000000000000000000008152600401611d1290613841565b60405180910390fd5b611d2481611426565b15611d64576040517f08c379a0000000000000000000000000000000000000000000000000000000008152600401611d5b906138ad565b60405180910390fd5b611d7060008383612030565b6001600460008473ffffffffffffffffffffffffffffffffffffffff1673ffffffffffffffffffffffffffffffffffffffff1681526020019081526020016000206000828254611dc09190613598565b92505081905550816003600083815260200190815260200160002060006101000a81548173ffffffffffffffffffffffffffffffffffffffff021916908373ffffffffffffffffffffffffffffffffffffffff160217905550808273ffffffffffffffffffffffffffffffffffffffff16600073ffffffffffffffffffffffffffffffffffffffff167fddf252ad1be2c89b69c2b068fc378daa952ba7f163c4a11628f55a4df523b3ef60405160405180910390a4611e8160008383612035565b5050565b6001816000016000828254019250508190555050565b611ea482611426565b611ee3576040517f08c379a0000000000000000000000000000000000000000000000000000000008152600401611eda9061393f565b60405180910390fd5b80600a60008481526020019081526020016000209080519060200190611f0a9291906121e5565b505050565b60006040518060a00160405280868152602001858152602001600073ffffffffffffffffffffffffffffffffffffffff16815260200160001515815260200183815250905080600960008581526020019081526020016000206000820151816000019080519060200190611f849291906121e5565b506020820151816001019080519060200190611fa19291906121e5565b5060408201518160020160006101000a81548173ffffffffffffffffffffffffffffffffffffffff021916908373ffffffffffffffffffffffffffffffffffffffff16021790555060608201518160020160146101000a81548160ff02191690831515021790555060808201518160030190805190602001906120259291906121e5565b509050505050505050565b505050565b505050565b600061205b8473ffffffffffffffffffffffffffffffffffffffff166121c2565b156121b5578373ffffffffffffffffffffffffffffffffffffffff1663150b7a02612084611492565b8786866040518563ffffffff1660e01b81526004016120a694939291906139b4565b6020604051808303816000875af19250505080156120e257506040513d601f19601f820116820180604052508101906120df9190613a15565b60015b612165573d8060008114612112576040519150601f19603f3d011682016040523d82523d6000602084013e612117565b606091505b5060008151141561215d576040517f08c379a0000000000000000000000000000000000000000000000000000000008152600401612154906136cc565b60405180910390fd5b805181602001fd5b63150b7a0260e01b7bffffffffffffffffffffffffffffffffffffffffffffffffffffffff1916817bffffffffffffffffffffffffffffffffffffffffffffffffffffffff1916149150506121ba565b600190505b949350505050565b6000808273ffffffffffffffffffffffffffffffffffffffff163b119050919050565b8280546121f190612aed565b90600052602060002090601f016020900481019282612213576000855561225a565b82601f1061222c57805160ff191683800117855561225a565b8280016001018555821561225a579182015b8281111561225957825182559160200191906001019061223e565b5b509050612267919061226b565b5090565b5b8082111561228457600081600090555060010161226c565b5090565b6000604051905090565b600080fd5b600080fd5b60007fffffffff0000000000000000000000000000000000000000000000000000000082169050919050565b6122d18161229c565b81146122dc57600080fd5b50565b6000813590506122ee816122c8565b92915050565b60006020828403121561230a57612309612292565b5b6000612318848285016122df565b91505092915050565b60008115159050919050565b61233681612321565b82525050565b6000602082019050612351600083018461232d565b92915050565b600081519050919050565b600082825260208201905092915050565b60005b83811015612391578082015181840152602081019050612376565b838111156123a0576000848401525b50505050565b6000601f19601f8301169050919050565b60006123c282612357565b6123cc8185612362565b93506123dc818560208601612373565b6123e5816123a6565b840191505092915050565b6000602082019050818103600083015261240a81846123b7565b905092915050565b6000819050919050565b61242581612412565b811461243057600080fd5b50565b6000813590506124428161241c565b92915050565b60006020828403121561245e5761245d612292565b5b600061246c84828501612433565b91505092915050565b600073ffffffffffffffffffffffffffffffffffffffff82169050919050565b60006124a082612475565b9050919050565b6124b081612495565b82525050565b60006020820190506124cb60008301846124a7565b92915050565b6124da81612495565b81146124e557600080fd5b50565b6000813590506124f7816124d1565b92915050565b6000806040838503121561251457612513612292565b5b6000612522858286016124e8565b925050602061253385828601612433565b9150509250929050565b60008060006060848603121561255657612555612292565b5b6000612564868287016124e8565b9350506020612575868287016124e8565b925050604061258686828701612433565b9150509250925092565b600080fd5b600080fd5b7f4e487b7100000000000000000000000000000000000000000000000000000000600052604160045260246000fd5b6125d2826123a6565b810181811067ffffffffffffffff821117156125f1576125f061259a565b5b80604052505050565b6000612604612288565b905061261082826125c9565b919050565b600067ffffffffffffffff8211156126305761262f61259a565b5b612639826123a6565b9050602081019050919050565b82818337600083830152505050565b600061266861266384612615565b6125fa565b90508281526020810184848401111561268457612683612595565b5b61268f848285612646565b509392505050565b600082601f8301126126ac576126ab612590565b5b81356126bc848260208601612655565b91505092915050565b600080600080600060a086880312156126e1576126e0612292565b5b60006126ef88828901612433565b955050602086013567ffffffffffffffff8111156127105761270f612297565b5b61271c88828901612697565b945050604086013567ffffffffffffffff81111561273d5761273c612297565b5b61274988828901612697565b935050606086013567ffffffffffffffff81111561276a57612769612297565b5b61277688828901612697565b9250506080612787888289016124e8565b9150509295509295909350565b600080604083850312156127ab576127aa612292565b5b60006127b985828601612433565b925050602083013567ffffffffffffffff8111156127da576127d9612297565b5b6127e685828601612697565b9150509250929050565b60006020828403121561280657612805612292565b5b6000612814848285016124e8565b91505092915050565b61282681612412565b82525050565b6000602082019050612841600083018461281d565b92915050565b61285081612321565b811461285b57600080fd5b50565b60008135905061286d81612847565b92915050565b6000806040838503121561288a57612889612292565b5b6000612898858286016124e8565b92505060206128a98582860161285e565b9150509250929050565b600067ffffffffffffffff8211156128ce576128cd61259a565b5b6128d7826123a6565b9050602081019050919050565b60006128f76128f2846128b3565b6125fa565b90508281526020810184848401111561291357612912612595565b5b61291e848285612646565b509392505050565b600082601f83011261293b5761293a612590565b5b813561294b8482602086016128e4565b91505092915050565b6000806000806080858703121561296e5761296d612292565b5b600061297c878288016124e8565b945050602061298d878288016124e8565b935050604061299e87828801612433565b925050606085013567ffffffffffffffff8111156129bf576129be612297565b5b6129cb87828801612926565b91505092959194509250565b6000806000606084860312156129f0576129ef612292565b5b600084013567ffffffffffffffff811115612a0e57612a0d612297565b5b612a1a86828701612697565b935050602084013567ffffffffffffffff811115612a3b57612a3a612297565b5b612a4786828701612697565b925050604084013567ffffffffffffffff811115612a6857612a67612297565b5b612a7486828701612697565b9150509250925092565b60008060408385031215612a9557612a94612292565b5b6000612aa3858286016124e8565b9250506020612ab4858286016124e8565b9150509250929050565b7f4e487b7100000000000000000000000000000000000000000000000000000000600052602260045260246000fd5b60006002820490506001821680612b0557607f821691505b60208210811415612b1957612b18612abe565b5b50919050565b7f4552433732313a20617070726f76656420717565727920666f72206e6f6e657860008201527f697374656e7420746f6b656e0000000000000000000000000000000000000000602082015250565b6000612b7b602c83612362565b9150612b8682612b1f565b604082019050919050565b60006020820190508181036000830152612baa81612b6e565b9050919050565b7f4552433732313a20617070726f76616c20746f2063757272656e74206f776e6560008201527f7200000000000000000000000000000000000000000000000000000000000000602082015250565b6000612c0d602183612362565b9150612c1882612bb1565b604082019050919050565b60006020820190508181036000830152612c3c81612c00565b9050919050565b7f4552433732313a20617070726f76652063616c6c6572206973206e6f74206f7760008201527f6e6572206e6f7220617070726f76656420666f7220616c6c0000000000000000602082015250565b6000612c9f603883612362565b9150612caa82612c43565b604082019050919050565b60006020820190508181036000830152612cce81612c92565b9050919050565b7f4552433732313a207472616e736665722063616c6c6572206973206e6f74206f60008201527f776e6572206e6f7220617070726f766564000000000000000000000000000000602082015250565b6000612d31603183612362565b9150612d3c82612cd5565b604082019050919050565b60006020820190508181036000830152612d6081612d24565b9050919050565b7f5468697320546f6b656e6964206e6f74206578697374732e0000000000000000600082015250565b6000612d9d601883612362565b9150612da882612d67565b602082019050919050565b60006020820190508181036000830152612dcc81612d90565b9050919050565b7f546869732070726f6475637420616c7265647920636c61696d65642e00000000600082015250565b6000612e09601c83612362565b9150612e1482612dd3565b602082019050919050565b60006020820190508181036000830152612e3881612dfc565b9050919050565b600081905092915050565b6000612e5582612357565b612e5f8185612e3f565b9350612e6f818560208601612373565b80840191505092915050565b6000612e878284612e4a565b915081905092915050565b60008190508160005260206000209050919050565b60008154612eb481612aed565b612ebe8186612e3f565b94506001821660008114612ed95760018114612eea57612f1d565b60ff19831686528186019350612f1d565b612ef385612e92565b60005b83811015612f1557815481890152600182019150602081019050612ef6565b838801955050505b50505092915050565b6000612f328284612ea7565b915081905092915050565b7f5468697320636c61696d6572206973206e6f7420617574686f72697a6520746f60008201527f20636c61696d2063657274696669636174652e00000000000000000000000000602082015250565b6000612f99603383612362565b9150612fa482612f3d565b604082019050919050565b60006020820190508181036000830152612fc881612f8c565b9050919050565b7f4552433732313a206f776e657220717565727920666f72206e6f6e657869737460008201527f656e7420746f6b656e0000000000000000000000000000000000000000000000602082015250565b600061302b602983612362565b915061303682612fcf565b604082019050919050565b6000602082019050818103600083015261305a8161301e565b9050919050565b7f456e74657265642070696e206973206e6f742076616c69642e00000000000000600082015250565b6000613097601983612362565b91506130a282613061565b602082019050919050565b600060208201905081810360008301526130c68161308a565b9050919050565b7f4552433732313a2062616c616e636520717565727920666f7220746865207a6560008201527f726f206164647265737300000000000000000000000000000000000000000000602082015250565b6000613129602a83612362565b9150613134826130cd565b604082019050919050565b600060208201905081810360008301526131588161311c565b9050919050565b7f4f776e61626c653a2063616c6c6572206973206e6f7420746865206f776e6572600082015250565b6000613195602083612362565b91506131a08261315f565b602082019050919050565b600060208201905081810360008301526131c481613188565b9050919050565b7f4552433732314d657461646174613a2055524920717565727920666f72206e6f60008201527f6e6578697374656e7420746f6b656e0000000000000000000000000000000000602082015250565b6000613227602f83612362565b9150613232826131cb565b604082019050919050565b600060208201905081810360008301526132568161321a565b9050919050565b60006132698285612e4a565b91506132758284612e4a565b91508190509392505050565b7f52657175697265206d696e696d756d206d696e74696e6720616d6f756e742e00600082015250565b60006132b7601f83612362565b91506132c282613281565b602082019050919050565b600060208201905081810360008301526132e6816132aa565b9050919050565b7f4f776e61626c653a206e6577206f776e657220697320746865207a65726f206160008201527f6464726573730000000000000000000000000000000000000000000000000000602082015250565b6000613349602683612362565b9150613354826132ed565b604082019050919050565b600060208201905081810360008301526133788161333c565b9050919050565b7f4552433732313a206f70657261746f7220717565727920666f72206e6f6e657860008201527f697374656e7420746f6b656e0000000000000000000000000000000000000000602082015250565b60006133db602c83612362565b91506133e68261337f565b604082019050919050565b6000602082019050818103600083015261340a816133ce565b9050919050565b7f4552433732313a207472616e736665722066726f6d20696e636f72726563742060008201527f6f776e6572000000000000000000000000000000000000000000000000000000602082015250565b600061346d602583612362565b915061347882613411565b604082019050919050565b6000602082019050818103600083015261349c81613460565b9050919050565b7f4552433732313a207472616e7366657220746f20746865207a65726f2061646460008201527f7265737300000000000000000000000000000000000000000000000000000000602082015250565b60006134ff602483612362565b915061350a826134a3565b604082019050919050565b6000602082019050818103600083015261352e816134f2565b9050919050565b7f4e487b7100000000000000000000000000000000000000000000000000000000600052601160045260246000fd5b600061356f82612412565b915061357a83612412565b92508282101561358d5761358c613535565b5b828203905092915050565b60006135a382612412565b91506135ae83612412565b9250827fffffffffffffffffffffffffffffffffffffffffffffffffffffffffffffffff038211156135e3576135e2613535565b5b828201905092915050565b7f4552433732313a20617070726f766520746f2063616c6c657200000000000000600082015250565b6000613624601983612362565b915061362f826135ee565b602082019050919050565b6000602082019050818103600083015261365381613617565b9050919050565b7f4552433732313a207472616e7366657220746f206e6f6e20455243373231526560008201527f63656976657220696d706c656d656e7465720000000000000000000000000000602082015250565b60006136b6603283612362565b91506136c18261365a565b604082019050919050565b600060208201905081810360008301526136e5816136a9565b9050919050565b60006136f782612412565b91507fffffffffffffffffffffffffffffffffffffffffffffffffffffffffffffffff82141561372a57613729613535565b5b600182019050919050565b7f4e487b7100000000000000000000000000000000000000000000000000000000600052601260045260246000fd5b600061376f82612412565b915061377a83612412565b92508261378a57613789613735565b5b828204905092915050565b60006137a082612412565b91506137ab83612412565b9250826137bb576137ba613735565b5b828206905092915050565b7f4e487b7100000000000000000000000000000000000000000000000000000000600052603260045260246000fd5b7f4552433732313a206d696e7420746f20746865207a65726f2061646472657373600082015250565b600061382b602083612362565b9150613836826137f5565b602082019050919050565b6000602082019050818103600083015261385a8161381e565b9050919050565b7f4552433732313a20746f6b656e20616c7265616479206d696e74656400000000600082015250565b6000613897601c83612362565b91506138a282613861565b602082019050919050565b600060208201905081810360008301526138c68161388a565b9050919050565b7f45524337323155524953746f726167653a2055524920736574206f66206e6f6e60008201527f6578697374656e7420746f6b656e000000000000000000000000000000000000602082015250565b6000613929602e83612362565b9150613934826138cd565b604082019050919050565b600060208201905081810360008301526139588161391c565b9050919050565b600081519050919050565b600082825260208201905092915050565b60006139868261395f565b613990818561396a565b93506139a0818560208601612373565b6139a9816123a6565b840191505092915050565b60006080820190506139c960008301876124a7565b6139d660208301866124a7565b6139e3604083018561281d565b81810360608301526139f5818461397b565b905095945050505050565b600081519050613a0f816122c8565b92915050565b600060208284031215613a2b57613a2a612292565b5b6000613a3984828501613a00565b9150509291505056fea2646970667358221220f82ef8139b7a3ff9ca56347d118e60d7bdb87949acb5c91ab15395f6f14d1ac764736f6c634300080a0033a2646970667358221220928b69eca85d32dc6f91650b9a284364f2086e7a04629042559e1c7779642fa364736f6c634300080a0033",
  "immutableReferences": {},
  "source": "// SPDX-License-Identifier: MIT\r\npragma solidity >=0.4.22 <0.9.0;\r\n\r\nimport \"@openzeppelin/contracts/access/Ownable.sol\";\r\nimport \"@openzeppelin/contracts/token/ERC721/ERC721.sol\";\r\nimport \"@openzeppelin/contracts/utils/Counters.sol\";\r\n\r\ncontract VerifyMe is Ownable {\r\n    address private admin;\r\n    struct IssuerRequest {\r\n        address issuerAddress;\r\n        string issuerCID;\r\n        bool approval; \r\n    }\r\n    struct IssuerContract {\r\n        address contractaddress;\r\n        string contractName;\r\n        uint256 requestIndex;\r\n        string contractType;\r\n    }\r\n    struct IssuerContractArray {\r\n        IssuerContract[] contractArray;\r\n    }\r\n    IssuerRequest[] public issuerRequest;\r\n    uint256 public approvalCounts;\r\n    mapping(address=>IssuerContractArray) issuerListOfContract;\r\n    mapping(address=>bool) public issuerAddress;\r\n    \r\n    constructor() {\r\n        admin = msg.sender;\r\n    }\r\n\r\n    function applyForRequest(string memory _issuerCID) public {\r\n        require(!issuerAddress[msg.sender],'Alaredy register as Issuer.');\r\n        issuerRequest.push(IssuerRequest({\r\n            issuerAddress:msg.sender,\r\n            issuerCID:_issuerCID,\r\n            approval:false\r\n        }));\r\n        issuerAddress[msg.sender] = true;\r\n    }\r\n\r\n    function approveRequest(uint256 _index) public {\r\n        require(issuerRequest[_index].approval == false, 'Issuer request already approved.');\r\n        issuerRequest[_index].approval = true;\r\n        approvalCounts = approvalCounts + 1;\r\n    }\r\n\r\n    function issuerRequestCount() public view returns (uint256 result)  {\r\n        uint256 length = issuerRequest.length;\r\n        return length;\r\n    }\r\n\r\n    function getOwnerContract(address _issuerAddress) public view returns(IssuerContract[] memory) {\r\n        return(issuerListOfContract[_issuerAddress].contractArray);\r\n    }\r\n\r\n    function createNewContract(uint256 _index,string memory _contractType,string memory _contractName) public {\r\n        require(issuerRequest[_index].issuerAddress == msg.sender && issuerRequest[_index].approval == true,'Issuer Request is not approved.');\r\n        address newContract = address(new physicalProduct(msg.sender));\r\n        \r\n        issuerListOfContract[msg.sender].contractArray.push(IssuerContract({\r\n            contractaddress:newContract,\r\n            contractName:_contractName,\r\n            requestIndex: _index,\r\n            contractType: _contractType\r\n        }));\r\n    }\r\n}\r\n\r\ncontract physicalProduct is Ownable,ERC721 {\r\n    using Counters for Counters.Counter;\r\n    Counters.Counter private _tokenIds;\r\n\r\n    struct Claimer {\r\n        string secretPassword;\r\n        string secretPin;\r\n        address claimerAddress;\r\n        bool claimStatus;\r\n        string email;\r\n    }\r\n    address admin;\r\n    mapping(uint256=>Claimer) tokenIdToClaimer;\r\n    mapping(uint256 => string) private _tokenURIs;\r\n   \r\n\r\n    constructor(address issuerAddress) ERC721('Physical Certificate NFT','PCN'){\r\n        admin = issuerAddress;\r\n    }\r\n    modifier restricted() {\r\n        require(admin == msg.sender);\r\n        _;\r\n    }\r\n\r\n    function mint(string memory _secretPassword,string memory _secretPin,string memory _tokenURI) public payable restricted returns(uint256){\r\n        require(msg.value >= 0.01 ether, 'Require minimum minting amount.');\r\n        uint256 _newTokenId = _tokenIds.current();\r\n        _mint(msg.sender,_newTokenId);\r\n        _tokenIds.increment();\r\n        _setTokenURI(_newTokenId, _tokenURI);\r\n        setClaimerDetail(_secretPassword,_secretPin,_newTokenId,'');\r\n        \r\n        return _newTokenId;\r\n    }\r\n\r\n    function _setTokenURI(uint256 tokenId, string memory _tokenURI) internal virtual {\r\n        require(_exists(tokenId), \"ERC721URIStorage: URI set of nonexistent token\");\r\n        _tokenURIs[tokenId] = _tokenURI;\r\n    }\r\n\r\n    function setClaimerDetail(string memory _secretPassword,string memory _secretPin,uint256 _tokenId,string memory _email) internal {\r\n        Claimer memory newClaimerDetails = Claimer({\r\n            secretPassword:_secretPassword,\r\n            secretPin:_secretPin,\r\n            claimerAddress: address(0x00),\r\n            claimStatus:false,\r\n            email:_email\r\n        });\r\n        tokenIdToClaimer[_tokenId] = newClaimerDetails;\r\n\r\n    }\r\n\r\n    function claimProduct(uint256 _tokenId,string memory _secretPassword,string memory _secretPin,string memory _email,address _toAccount) public returns (bool result){\r\n        require(_exists(_tokenId), 'This Tokenid not exists.');\r\n        require(tokenIdToClaimer[_tokenId].claimStatus == false, 'This product alredy claimed.');\r\n        require((keccak256(abi.encodePacked(tokenIdToClaimer[_tokenId].secretPassword)) == keccak256(abi.encodePacked(_secretPassword)) && keccak256(abi.encodePacked(tokenIdToClaimer[_tokenId].secretPin)) == keccak256(abi.encodePacked(_secretPin))), 'This claimer is not authorize to claim certificate.');\r\n        _transfer(admin, _toAccount, _tokenId);\r\n        tokenIdToClaimer[_tokenId].claimerAddress = _toAccount;\r\n        tokenIdToClaimer[_tokenId].claimStatus = true;\r\n        tokenIdToClaimer[_tokenId].email = _email;\r\n        return tokenIdToClaimer[_tokenId].claimStatus;\r\n    }\r\n\r\n    function checkAuthenticity(uint256 _tokenId,string memory _secretPin) public view returns (string memory result) {\r\n        require(_exists(_tokenId), 'This Tokenid not exists.');\r\n        require(keccak256(abi.encodePacked(tokenIdToClaimer[_tokenId].secretPin)) == keccak256(abi.encodePacked(_secretPin)), 'Entered pin is not valid.');\r\n        return _tokenURIs[_tokenId];\r\n    }\r\n\r\n    function getClaimStatus(uint256 _tokenId) public view returns (bool result){\r\n        require(_exists(_tokenId), 'This Tokenid not exists.');\r\n        return (tokenIdToClaimer[_tokenId].claimStatus);\r\n    }\r\n    \r\n\r\n}",
  "sourcePath": "F:\\Blockchain\\VerifyMe\\Backend\\contracts\\VerifyMe.sol",
  "compiler": {
    "name": "solc",
    "version": "0.8.10+commit.fc410830.Emscripten.clang"
  },
  "schemaVersion": "3.4.3",
  "updatedAt": "2023-02-21T13:03:38.198Z",
  "networkType": "ethereum",
  "devdoc": {
    "kind": "dev",
    "methods": {
      "owner()": {
        "details": "Returns the address of the current owner."
      },
      "renounceOwnership()": {
        "details": "Leaves the contract without owner. It will not be possible to call `onlyOwner` functions anymore. Can only be called by the current owner. NOTE: Renouncing ownership will leave the contract without an owner, thereby removing any functionality that is only available to the owner."
      },
      "transferOwnership(address)": {
        "details": "Transfers ownership of the contract to a new account (`newOwner`). Can only be called by the current owner."
      }
    },
    "version": 1
  },
  "userdoc": {
    "kind": "user",
    "methods": {},
    "version": 1
  }
}